{
  "_format": "hh-sol-artifact-1",
  "contractName": "SaeFtmStakingV1",
  "sourceName": "contracts/SaeFtmStakingV1.sol",
  "abi": [
    {
      "anonymous": false,
      "inputs": [
        {
          "indexed": false,
          "internalType": "address",
          "name": "previousAdmin",
          "type": "address"
        },
        {
          "indexed": false,
          "internalType": "address",
          "name": "newAdmin",
          "type": "address"
        }
      ],
      "name": "AdminChanged",
      "type": "event"
    },
    {
      "anonymous": false,
      "inputs": [
        {
          "indexed": true,
          "internalType": "address",
          "name": "beacon",
          "type": "address"
        }
      ],
      "name": "BeaconUpgraded",
      "type": "event"
    },
    {
      "anonymous": false,
      "inputs": [
        {
          "indexed": false,
          "internalType": "address",
          "name": "msgSender",
          "type": "address"
        },
        {
          "indexed": false,
          "internalType": "uint256",
          "name": "depositTokenAmount",
          "type": "uint256"
        },
        {
          "indexed": false,
          "internalType": "string",
          "name": "depositTokenType",
          "type": "string"
        },
        {
          "indexed": false,
          "internalType": "uint256",
          "name": "usdAmount",
          "type": "uint256"
        },
        {
          "indexed": false,
          "internalType": "bool",
          "name": "autoCompound",
          "type": "bool"
        }
      ],
      "name": "DepositEvent",
      "type": "event"
    },
    {
      "anonymous": false,
      "inputs": [
        {
          "indexed": false,
          "internalType": "uint8",
          "name": "version",
          "type": "uint8"
        }
      ],
      "name": "Initialized",
      "type": "event"
    },
    {
      "anonymous": false,
      "inputs": [
        {
          "indexed": true,
          "internalType": "address",
          "name": "previousOwner",
          "type": "address"
        },
        {
          "indexed": true,
          "internalType": "address",
          "name": "newOwner",
          "type": "address"
        }
      ],
      "name": "OwnershipTransferred",
      "type": "event"
    },
    {
      "anonymous": false,
      "inputs": [
        {
          "indexed": false,
          "internalType": "address",
          "name": "account",
          "type": "address"
        }
      ],
      "name": "Paused",
      "type": "event"
    },
    {
      "anonymous": false,
      "inputs": [
        {
          "indexed": false,
          "internalType": "address",
          "name": "msgSender",
          "type": "address"
        },
        {
          "indexed": false,
          "internalType": "uint256",
          "name": "divestmentTokenAmount",
          "type": "uint256"
        },
        {
          "indexed": false,
          "internalType": "string",
          "name": "divestmentTokenType",
          "type": "string"
        }
      ],
      "name": "RetrieveDivestmentEvent",
      "type": "event"
    },
    {
      "anonymous": false,
      "inputs": [
        {
          "indexed": false,
          "internalType": "address",
          "name": "account",
          "type": "address"
        }
      ],
      "name": "Unpaused",
      "type": "event"
    },
    {
      "anonymous": false,
      "inputs": [
        {
          "indexed": true,
          "internalType": "address",
          "name": "implementation",
          "type": "address"
        }
      ],
      "name": "Upgraded",
      "type": "event"
    },
    {
      "inputs": [
        {
          "internalType": "int256",
          "name": "month",
          "type": "int256"
        },
        {
          "internalType": "int256",
          "name": "year",
          "type": "int256"
        },
        {
          "internalType": "uint256",
          "name": "totalSaeRewardThisPeriod",
          "type": "uint256"
        },
        {
          "internalType": "uint256",
          "name": "totalSaeStaked",
          "type": "uint256"
        }
      ],
      "name": "assignRewards",
      "outputs": [],
      "stateMutability": "nonpayable",
      "type": "function"
    },
    {
      "inputs": [],
      "name": "claimRewards",
      "outputs": [],
      "stateMutability": "nonpayable",
      "type": "function"
    },
    {
      "inputs": [
        {
          "internalType": "address",
          "name": "investorAddr",
          "type": "address"
        },
        {
          "internalType": "uint256",
          "name": "nftId",
          "type": "uint256"
        },
        {
          "internalType": "uint256",
          "name": "saeAmount",
          "type": "uint256"
        }
      ],
      "name": "convertInvestorDepositToNftValue",
      "outputs": [],
      "stateMutability": "nonpayable",
      "type": "function"
    },
    {
      "inputs": [
        {
          "internalType": "address",
          "name": "investorAddr",
          "type": "address"
        },
        {
          "internalType": "uint256",
          "name": "nftId",
          "type": "uint256"
        },
        {
          "internalType": "uint256",
          "name": "divestmentTokenAmount",
          "type": "uint256"
        },
        {
          "internalType": "string",
          "name": "divestmentTokenType",
          "type": "string"
        }
      ],
      "name": "convertNftValueDivestmentToInvestor",
      "outputs": [],
      "stateMutability": "nonpayable",
      "type": "function"
    },
    {
      "inputs": [
        {
          "internalType": "address",
          "name": "investorAddr",
          "type": "address"
        },
        {
          "internalType": "uint256",
          "name": "nftId",
          "type": "uint256"
        },
        {
          "internalType": "uint256",
          "name": "ftmAmount",
          "type": "uint256"
        }
      ],
      "name": "convertNftValueRewardToInvestor",
      "outputs": [],
      "stateMutability": "nonpayable",
      "type": "function"
    },
    {
      "inputs": [
        {
          "internalType": "uint256",
          "name": "depositAmount",
          "type": "uint256"
        },
        {
          "internalType": "string",
          "name": "depositToken",
          "type": "string"
        },
        {
          "internalType": "uint256",
          "name": "usdInitialAmount",
          "type": "uint256"
        },
        {
          "internalType": "bool",
          "name": "autoCompound",
          "type": "bool"
        }
      ],
      "name": "deposit",
      "outputs": [],
      "stateMutability": "nonpayable",
      "type": "function"
    },
    {
      "inputs": [
        {
          "internalType": "address",
          "name": "erc20Addr",
          "type": "address"
        },
        {
          "internalType": "address",
          "name": "erc721Addr",
          "type": "address"
        }
      ],
      "name": "initialize",
      "outputs": [],
      "stateMutability": "nonpayable",
      "type": "function"
    },
    {
      "inputs": [
        {
          "internalType": "address",
          "name": "investorAddr",
          "type": "address"
        }
      ],
      "name": "investorOf",
      "outputs": [
        {
          "components": [
            {
              "internalType": "uint256",
              "name": "depositTokenAmount",
              "type": "uint256"
            },
            {
              "internalType": "string",
              "name": "depositTokenType",
              "type": "string"
            },
            {
              "internalType": "uint256",
              "name": "usdInitialDeposit",
              "type": "uint256"
            },
            {
              "internalType": "uint256",
              "name": "ftmReward",
              "type": "uint256"
            },
            {
              "internalType": "uint256",
              "name": "divestmentTokenAmount",
              "type": "uint256"
            },
            {
              "internalType": "string",
              "name": "divestmentTokenType",
              "type": "string"
            },
            {
              "internalType": "uint256[]",
              "name": "burnedNftIds",
              "type": "uint256[]"
            },
            {
              "internalType": "uint256",
              "name": "purchaseTimestamp",
              "type": "uint256"
            },
            {
              "internalType": "bool",
              "name": "isCompound",
              "type": "bool"
            },
            {
              "internalType": "bool",
              "name": "isValue",
              "type": "bool"
            }
          ],
          "internalType": "struct SaeStakingTypes.PubInvestor",
          "name": "",
          "type": "tuple"
        }
      ],
      "stateMutability": "view",
      "type": "function"
    },
    {
      "inputs": [
        {
          "internalType": "address",
          "name": "investorAddr",
          "type": "address"
        },
        {
          "internalType": "string",
          "name": "divestmentType",
          "type": "string"
        }
      ],
      "name": "investorOfWithDivestmentAmount",
      "outputs": [
        {
          "components": [
            {
              "internalType": "uint256",
              "name": "depositTokenAmount",
              "type": "uint256"
            },
            {
              "internalType": "string",
              "name": "depositTokenType",
              "type": "string"
            },
            {
              "internalType": "uint256",
              "name": "usdInitialDeposit",
              "type": "uint256"
            },
            {
              "internalType": "uint256",
              "name": "ftmReward",
              "type": "uint256"
            },
            {
              "internalType": "uint256",
              "name": "divestmentTokenAmount",
              "type": "uint256"
            },
            {
              "internalType": "string",
              "name": "divestmentTokenType",
              "type": "string"
            },
            {
              "internalType": "uint256[]",
              "name": "burnedNftIds",
              "type": "uint256[]"
            },
            {
              "internalType": "uint256",
              "name": "purchaseTimestamp",
              "type": "uint256"
            },
            {
              "internalType": "bool",
              "name": "isCompound",
              "type": "bool"
            },
            {
              "internalType": "bool",
              "name": "isValue",
              "type": "bool"
            }
          ],
          "internalType": "struct SaeStakingTypes.PubInvestor",
          "name": "",
          "type": "tuple"
        }
      ],
      "stateMutability": "view",
      "type": "function"
    },
    {
      "inputs": [],
      "name": "nftValueIds",
      "outputs": [
        {
          "internalType": "uint256[]",
          "name": "",
          "type": "uint256[]"
        }
      ],
      "stateMutability": "view",
      "type": "function"
    },
    {
      "inputs": [
        {
          "internalType": "uint256",
          "name": "nftId",
          "type": "uint256"
        }
      ],
      "name": "nftValueOf",
      "outputs": [
        {
          "components": [
            {
              "internalType": "uint256",
              "name": "nftId",
              "type": "uint256"
            },
            {
              "internalType": "address",
              "name": "nftOwner",
              "type": "address"
            },
            {
              "internalType": "uint256",
              "name": "initialDepositTokenAmount",
              "type": "uint256"
            },
            {
              "internalType": "string",
              "name": "initialDepositTokenType",
              "type": "string"
            },
            {
              "internalType": "uint256",
              "name": "usdInitialDeposit",
              "type": "uint256"
            },
            {
              "internalType": "uint256",
              "name": "saeReward",
              "type": "uint256"
            },
            {
              "internalType": "uint256",
              "name": "saeBalance",
              "type": "uint256"
            },
            {
              "internalType": "uint256",
              "name": "saeDivestment",
              "type": "uint256"
            },
            {
              "internalType": "string",
              "name": "divestmentTokenType",
              "type": "string"
            },
            {
              "internalType": "bool",
              "name": "isCompound",
              "type": "bool"
            },
            {
              "internalType": "bool",
              "name": "isDivesting",
              "type": "bool"
            },
            {
              "internalType": "bool",
              "name": "isTransferred",
              "type": "bool"
            },
            {
              "internalType": "bool",
              "name": "isBurned",
              "type": "bool"
            },
            {
              "internalType": "bool",
              "name": "isValue",
              "type": "bool"
            },
            {
              "internalType": "uint256",
              "name": "monthlyRewardPercentage",
              "type": "uint256"
            },
            {
              "internalType": "uint256",
              "name": "purchaseTimestamp",
              "type": "uint256"
            },
            {
              "components": [
                {
                  "internalType": "uint256",
                  "name": "timestamp",
                  "type": "uint256"
                },
                {
                  "internalType": "string",
                  "name": "activity",
                  "type": "string"
                },
                {
                  "internalType": "string",
                  "name": "mutation",
                  "type": "string"
                }
              ],
              "internalType": "struct SaeStakingTypes.Activity[]",
              "name": "history",
              "type": "tuple[]"
            }
          ],
          "internalType": "struct SaeStakingTypes.NftValue",
          "name": "",
          "type": "tuple"
        }
      ],
      "stateMutability": "view",
      "type": "function"
    },
    {
      "inputs": [],
      "name": "owner",
      "outputs": [
        {
          "internalType": "address",
          "name": "",
          "type": "address"
        }
      ],
      "stateMutability": "view",
      "type": "function"
    },
    {
      "inputs": [],
      "name": "paused",
      "outputs": [
        {
          "internalType": "bool",
          "name": "",
          "type": "bool"
        }
      ],
      "stateMutability": "view",
      "type": "function"
    },
    {
      "inputs": [],
      "name": "pendingInvestorList",
      "outputs": [
        {
          "internalType": "address[]",
          "name": "",
          "type": "address[]"
        }
      ],
      "stateMutability": "view",
      "type": "function"
    },
    {
      "inputs": [],
      "name": "proxiableUUID",
      "outputs": [
        {
          "internalType": "bytes32",
          "name": "",
          "type": "bytes32"
        }
      ],
      "stateMutability": "view",
      "type": "function"
    },
    {
      "inputs": [],
      "name": "renounceOwnership",
      "outputs": [],
      "stateMutability": "nonpayable",
      "type": "function"
    },
    {
      "inputs": [
        {
          "internalType": "uint256",
          "name": "nftId",
          "type": "uint256"
        },
        {
          "internalType": "string",
          "name": "divestmentTokenType",
          "type": "string"
        }
      ],
      "name": "requestDivestmentNextMonth",
      "outputs": [],
      "stateMutability": "nonpayable",
      "type": "function"
    },
    {
      "inputs": [
        {
          "internalType": "string",
          "name": "divestmentTokenType",
          "type": "string"
        }
      ],
      "name": "retrieveDivestment",
      "outputs": [],
      "stateMutability": "nonpayable",
      "type": "function"
    },
    {
      "inputs": [
        {
          "internalType": "address",
          "name": "owner",
          "type": "address"
        },
        {
          "internalType": "uint256",
          "name": "index",
          "type": "uint256"
        }
      ],
      "name": "tokenOfOwnerByIndex",
      "outputs": [
        {
          "internalType": "uint256",
          "name": "",
          "type": "uint256"
        }
      ],
      "stateMutability": "view",
      "type": "function"
    },
    {
      "inputs": [
        {
          "internalType": "int256",
          "name": "month",
          "type": "int256"
        },
        {
          "internalType": "int256",
          "name": "year",
          "type": "int256"
        }
      ],
      "name": "totalSaePayoutOf",
      "outputs": [
        {
          "components": [
            {
              "internalType": "uint256",
              "name": "totalSaePayout",
              "type": "uint256"
            },
            {
              "components": [
                {
                  "internalType": "uint256",
                  "name": "saeDivestment",
                  "type": "uint256"
                },
                {
                  "internalType": "uint256",
                  "name": "saeRewardsThisPeriod",
                  "type": "uint256"
                },
                {
                  "internalType": "string",
                  "name": "divestmentTokenType",
                  "type": "string"
                }
              ],
              "internalType": "struct SaeStakingTypes.PayoutPerToken[20]",
              "name": "totalPayoutPerToken",
              "type": "tuple[20]"
            }
          ],
          "internalType": "struct SaeStakingTypes.Payout",
          "name": "",
          "type": "tuple"
        }
      ],
      "stateMutability": "view",
      "type": "function"
    },
    {
      "inputs": [
        {
          "internalType": "int256",
          "name": "month",
          "type": "int256"
        },
        {
          "internalType": "int256",
          "name": "year",
          "type": "int256"
        }
      ],
      "name": "transactionOf",
      "outputs": [
        {
          "components": [
            {
              "internalType": "uint256",
              "name": "nftId",
              "type": "uint256"
            },
            {
              "internalType": "address",
              "name": "investorAddr",
              "type": "address"
            },
            {
              "internalType": "bool",
              "name": "isValue",
              "type": "bool"
            },
            {
              "internalType": "uint256",
              "name": "saeBalance",
              "type": "uint256"
            },
            {
              "internalType": "uint256",
              "name": "saeDivestment",
              "type": "uint256"
            },
            {
              "internalType": "uint256",
              "name": "saeRewardsThisPeriod",
              "type": "uint256"
            },
            {
              "internalType": "string",
              "name": "divestmentTokenType",
              "type": "string"
            },
            {
              "internalType": "bytes32",
              "name": "periodId",
              "type": "bytes32"
            },
            {
              "internalType": "enum SaeStakingTypes.NftStatus",
              "name": "nftStatus",
              "type": "uint8"
            },
            {
              "internalType": "enum SaeStakingTypes.NftStrategy",
              "name": "nftStrategy",
              "type": "uint8"
            },
            {
              "internalType": "bool",
              "name": "accrue",
              "type": "bool"
            },
            {
              "internalType": "uint256",
              "name": "createdTimestamp",
              "type": "uint256"
            }
          ],
          "internalType": "struct SaeStakingTypes.Transaction[]",
          "name": "",
          "type": "tuple[]"
        }
      ],
      "stateMutability": "view",
      "type": "function"
    },
    {
      "inputs": [
        {
          "internalType": "address",
          "name": "to",
          "type": "address"
        },
        {
          "internalType": "uint256",
          "name": "tokenId",
          "type": "uint256"
        }
      ],
      "name": "transferErc721",
      "outputs": [],
      "stateMutability": "nonpayable",
      "type": "function"
    },
    {
      "inputs": [
        {
          "internalType": "address",
          "name": "newOwner",
          "type": "address"
        }
      ],
      "name": "transferOwnership",
      "outputs": [],
      "stateMutability": "nonpayable",
      "type": "function"
    },
    {
      "inputs": [
        {
          "internalType": "uint256",
          "name": "nftId",
          "type": "uint256"
        },
        {
          "internalType": "bool",
          "name": "autoCompound",
          "type": "bool"
        }
      ],
      "name": "updateCompoundStatus",
      "outputs": [],
      "stateMutability": "nonpayable",
      "type": "function"
    },
    {
      "inputs": [
        {
          "internalType": "address",
          "name": "newImplementation",
          "type": "address"
        }
      ],
      "name": "upgradeTo",
      "outputs": [],
      "stateMutability": "nonpayable",
      "type": "function"
    },
    {
      "inputs": [
        {
          "internalType": "address",
          "name": "newImplementation",
          "type": "address"
        },
        {
          "internalType": "bytes",
          "name": "data",
          "type": "bytes"
        }
      ],
      "name": "upgradeToAndCall",
      "outputs": [],
      "stateMutability": "payable",
      "type": "function"
    },
    {
      "inputs": [
        {
          "internalType": "address",
          "name": "withdrawalAddr",
          "type": "address"
        }
      ],
      "name": "withdraw",
      "outputs": [],
      "stateMutability": "nonpayable",
      "type": "function"
    }
  ],
  "bytecode": "0x60a06040523073ffffffffffffffffffffffffffffffffffffffff1660809073ffffffffffffffffffffffffffffffffffffffff1660601b81525034801561004657600080fd5b5060805160601c6156fe62000082600039600081816107fe0152818161088d01528181610fa50152818161103401526113ef01526156fe6000f3fe60806040526004361061019c5760003560e01c806352d1902d116100ec578063a9900aae1161008a578063d97f22d411610064578063d97f22d41461058b578063dc3ac6fd146105b6578063f2fde38b146105f3578063ff4610cd1461061c5761019c565b8063a9900aae146104fc578063c8a1a5f314610539578063d699744b146105625761019c565b8063715018a6116100c6578063715018a61461045457806371d23f2f1461046b5780638458a490146104a85780638da5cb5b146104d15761019c565b806352d1902d146103d55780635719c242146104005780635c975abb146104295761019c565b806342133a5e116101595780634dffeb69116101335780634dffeb691461032a5780634f1ef286146103675780634f7f940b1461038357806351cff8d9146103ac5761019c565b806342133a5e1461029b578063467b321c146102d8578063485cc955146103015761019c565b80632f745c59146101a1578063306cc627146101de5780633659cfe61461020757806336c4419614610230578063372500ab146102595780633c978fbb14610270575b600080fd5b3480156101ad57600080fd5b506101c860048036038101906101c391906134eb565b610645565b6040516101d59190614d52565b60405180910390f35b3480156101ea57600080fd5b5061020560048036038101906102009190613527565b6106fc565b005b34801561021357600080fd5b5061022e600480360381019061022991906133b5565b6107fc565b005b34801561023c57600080fd5b50610257600480360381019061025291906136c5565b6109ab565b005b34801561026557600080fd5b5061026e610aa9565b005b34801561027c57600080fd5b50610285610b41565b604051610292919061475d565b60405180910390f35b3480156102a757600080fd5b506102c260048036038101906102bd9190613497565b610b9a565b6040516102cf9190614d30565b60405180910390f35b3480156102e457600080fd5b506102ff60048036038101906102fa9190613576565b610c3c565b005b34801561030d57600080fd5b5061032860048036038101906103239190613407565b610d5a565b005b34801561033657600080fd5b50610351600480360381019061034c91906133b5565b610f04565b60405161035e9190614d30565b60405180910390f35b610381600480360381019061037c9190613443565b610fa3565b005b34801561038f57600080fd5b506103aa60048036038101906103a59190613912565b6110e0565b005b3480156103b857600080fd5b506103d360048036038101906103ce91906133b5565b6111d4565b005b3480156103e157600080fd5b506103ea6113eb565b6040516103f7919061479a565b60405180910390f35b34801561040c57600080fd5b5061042760048036038101906104229190613527565b6114a4565b005b34801561043557600080fd5b5061043e6115bc565b60405161044b919061477f565b60405180910390f35b34801561046057600080fd5b506104696115d3565b005b34801561047757600080fd5b50610492600480360381019061048d9190613689565b61165b565b60405161049f9190614d0e565b60405180910390f35b3480156104b457600080fd5b506104cf60048036038101906104ca91906138ba565b61177c565b005b3480156104dd57600080fd5b506104e661181d565b6040516104f391906144f7565b60405180910390f35b34801561050857600080fd5b50610523600480360381019061051e919061382c565b611847565b6040516105309190614cec565b60405180910390f35b34801561054557600080fd5b50610560600480360381019061055b919061387e565b6118e6565b005b34801561056e57600080fd5b5061058960048036038101906105849190613728565b611a38565b005b34801561059757600080fd5b506105a0611b62565b6040516105ad919061469b565b60405180910390f35b3480156105c257600080fd5b506105dd60048036038101906105d89190613689565b611bf1565b6040516105ea919061473b565b60405180910390f35b3480156105ff57600080fd5b5061061a600480360381019061061591906133b5565b611d0c565b005b34801561062857600080fd5b50610643600480360381019061063e91906134eb565b611e04565b005b600060fc60009054906101000a900473ffffffffffffffffffffffffffffffffffffffff1673ffffffffffffffffffffffffffffffffffffffff16630f7939a384846040518363ffffffff1660e01b81526004016106a4929190614579565b60206040518083038186803b1580156106bc57600080fd5b505afa1580156106d0573d6000803e3d6000fd5b505050506040513d601f19601f820116820180604052508101906106f49190613855565b905092915050565b610704611ea6565b73ffffffffffffffffffffffffffffffffffffffff1661072261181d565b73ffffffffffffffffffffffffffffffffffffffff1614610778576040517f08c379a000000000000000000000000000000000000000000000000000000000815260040161076f90614c6c565b60405180910390fd5b73__$bc0bb8a61bba2a119260ac738e7f529aa2$__635969627b6101036101046101056101026101018989896040518963ffffffff1660e01b81526004016107c79897969594939291906146bd565b60006040518083038186803b1580156107df57600080fd5b505af41580156107f3573d6000803e3d6000fd5b50505050505050565b7f000000000000000000000000000000000000000000000000000000000000000073ffffffffffffffffffffffffffffffffffffffff163073ffffffffffffffffffffffffffffffffffffffff16141561088b576040517f08c379a000000000000000000000000000000000000000000000000000000000815260040161088290614b6c565b60405180910390fd5b7f000000000000000000000000000000000000000000000000000000000000000073ffffffffffffffffffffffffffffffffffffffff166108ca611eae565b73ffffffffffffffffffffffffffffffffffffffff1614610920576040517f08c379a000000000000000000000000000000000000000000000000000000000815260040161091790614b8c565b60405180910390fd5b61092981611f05565b6109a881600067ffffffffffffffff81111561096e577f4e487b7100000000000000000000000000000000000000000000000000000000600052604160045260246000fd5b6040519080825280601f01601f1916602001820160405280156109a05781602001600182028036833780820191505090505b506000611ff4565b50565b6109b3611ea6565b73ffffffffffffffffffffffffffffffffffffffff166109d161181d565b73ffffffffffffffffffffffffffffffffffffffff1614610a27576040517f08c379a0000000000000000000000000000000000000000000000000000000008152600401610a1e90614c6c565b60405180910390fd5b73__$e8bd35486a1fba368bd71b2ccbd41dc03d$__632e4c4a1d60ff61010261010061010187878b8b6040518963ffffffff1660e01b8152600401610a73989796959493929190614a71565b60006040518083038186803b158015610a8b57600080fd5b505af4158015610a9f573d6000803e3d6000fd5b5050505050505050565b73__$e8bd35486a1fba368bd71b2ccbd41dc03d$__63f511a6d260fb60009054906101000a900473ffffffffffffffffffffffffffffffffffffffff16610105610af1611ea6565b6040518463ffffffff1660e01b8152600401610b0f9392919061481d565b60006040518083038186803b158015610b2757600080fd5b505af4158015610b3b573d6000803e3d6000fd5b50505050565b6060610101805480602002602001604051908101604052809291908181526020018280548015610b9057602002820191906000526020600020905b815481526020019060010190808311610b7c575b5050505050905090565b610ba26127ad565b73__$62791d5f262a466cbb977fbe52b98315d8$__63651b06f184610105856040518463ffffffff1660e01b8152600401610bdf9392919061453b565b60006040518083038186803b158015610bf757600080fd5b505af4158015610c0b573d6000803e3d6000fd5b505050506040513d6000823e3d601f19601f82011682018060405250810190610c3491906137eb565b905092915050565b610c44611ea6565b73ffffffffffffffffffffffffffffffffffffffff16610c6261181d565b73ffffffffffffffffffffffffffffffffffffffff1614610cb8576040517f08c379a0000000000000000000000000000000000000000000000000000000008152600401610caf90614c6c565b60405180910390fd5b73__$bc0bb8a61bba2a119260ac738e7f529aa2$__639106d15c60fc60009054906101000a900473ffffffffffffffffffffffffffffffffffffffff1661010561010289898989896040518963ffffffff1660e01b8152600401610d23989796959493929190614958565b60006040518083038186803b158015610d3b57600080fd5b505af4158015610d4f573d6000803e3d6000fd5b505050505050505050565b6000610d666001612171565b90508015610d8a576001600060016101000a81548160ff0219169083151502179055505b610d92612261565b610d9a6122b2565b610da261230b565b8260fd60006101000a81548173ffffffffffffffffffffffffffffffffffffffff021916908373ffffffffffffffffffffffffffffffffffffffff1602179055508160fe60006101000a81548173ffffffffffffffffffffffffffffffffffffffff021916908373ffffffffffffffffffffffffffffffffffffffff1602179055508260fb60006101000a81548173ffffffffffffffffffffffffffffffffffffffff021916908373ffffffffffffffffffffffffffffffffffffffff1602179055508160fc60006101000a81548173ffffffffffffffffffffffffffffffffffffffff021916908373ffffffffffffffffffffffffffffffffffffffff1602179055508015610eff5760008060016101000a81548160ff0219169083151502179055507f7f26b83ff96e1f2b6a682f133852f6798a09c465da95921460cefb38474024986001604051610ef69190614aef565b60405180910390a15b505050565b610f0c6127ad565b73__$62791d5f262a466cbb977fbe52b98315d8$__63fafb00e8836101056040518363ffffffff1660e01b8152600401610f47929190614512565b60006040518083038186803b158015610f5f57600080fd5b505af4158015610f73573d6000803e3d6000fd5b505050506040513d6000823e3d601f19601f82011682018060405250810190610f9c91906137eb565b9050919050565b7f000000000000000000000000000000000000000000000000000000000000000073ffffffffffffffffffffffffffffffffffffffff163073ffffffffffffffffffffffffffffffffffffffff161415611032576040517f08c379a000000000000000000000000000000000000000000000000000000000815260040161102990614b6c565b60405180910390fd5b7f000000000000000000000000000000000000000000000000000000000000000073ffffffffffffffffffffffffffffffffffffffff16611071611eae565b73ffffffffffffffffffffffffffffffffffffffff16146110c7576040517f08c379a00000000000000000000000000000000000000000000000000000000081526004016110be90614b8c565b60405180910390fd5b6110d082611f05565b6110dc82826001611ff4565b5050565b73__$e8bd35486a1fba368bd71b2ccbd41dc03d$__63bc790c8c60fb60009054906101000a900473ffffffffffffffffffffffffffffffffffffffff16610105611128611ea6565b306101036101048b8b8b8b6040518b63ffffffff1660e01b81526004016111589a99989796959493929190614854565b60006040518083038186803b15801561117057600080fd5b505af4158015611184573d6000803e3d6000fd5b505050507f3128a64ff4d6d5f7be723a7c3a9e21ca8ed0fff1760b8912847ee2a3c1c786356111b1611ea6565b858585856040516111c6959493929190614641565b60405180910390a150505050565b6111dc611ea6565b73ffffffffffffffffffffffffffffffffffffffff166111fa61181d565b73ffffffffffffffffffffffffffffffffffffffff1614611250576040517f08c379a000000000000000000000000000000000000000000000000000000000815260040161124790614c6c565b60405180910390fd5b60fb60009054906101000a900473ffffffffffffffffffffffffffffffffffffffff1673ffffffffffffffffffffffffffffffffffffffff1663a9059cbb8260fb60009054906101000a900473ffffffffffffffffffffffffffffffffffffffff1673ffffffffffffffffffffffffffffffffffffffff166370a08231306040518263ffffffff1660e01b81526004016112ea91906144f7565b60206040518083038186803b15801561130257600080fd5b505afa158015611316573d6000803e3d6000fd5b505050506040513d601f19601f8201168201806040525081019061133a9190613855565b6040518363ffffffff1660e01b8152600401611357929190614579565b602060405180830381600087803b15801561137157600080fd5b505af1158015611385573d6000803e3d6000fd5b505050506040513d601f19601f820116820180604052508101906113a99190613637565b6113e8576040517f08c379a00000000000000000000000000000000000000000000000000000000081526004016113df90614bac565b60405180910390fd5b50565b60007f000000000000000000000000000000000000000000000000000000000000000073ffffffffffffffffffffffffffffffffffffffff163073ffffffffffffffffffffffffffffffffffffffff161461147b576040517f08c379a000000000000000000000000000000000000000000000000000000000815260040161147290614bcc565b60405180910390fd5b7f360894a13ba1a3210667c828492db98dca3e2076cc3735a920a3ca505d382bbc60001b905090565b6114ac611ea6565b73ffffffffffffffffffffffffffffffffffffffff166114ca61181d565b73ffffffffffffffffffffffffffffffffffffffff1614611520576040517f08c379a000000000000000000000000000000000000000000000000000000000815260040161151790614c6c565b60405180910390fd5b73__$bc0bb8a61bba2a119260ac738e7f529aa2$__63ecf1054460fc60009054906101000a900473ffffffffffffffffffffffffffffffffffffffff166101056101028787876040518763ffffffff1660e01b8152600401611587969594939291906148f7565b60006040518083038186803b15801561159f57600080fd5b505af41580156115b3573d6000803e3d6000fd5b50505050505050565b600060c960009054906101000a900460ff16905090565b6115db611ea6565b73ffffffffffffffffffffffffffffffffffffffff166115f961181d565b73ffffffffffffffffffffffffffffffffffffffff161461164f576040517f08c379a000000000000000000000000000000000000000000000000000000000815260040161164690614c6c565b60405180910390fd5b6116596000612364565b565b611663612804565b61166b611ea6565b73ffffffffffffffffffffffffffffffffffffffff1661168961181d565b73ffffffffffffffffffffffffffffffffffffffff16146116df576040517f08c379a00000000000000000000000000000000000000000000000000000000081526004016116d690614c6c565b60405180910390fd5b73__$62791d5f262a466cbb977fbe52b98315d8$__637d87673a848461010060ff6040518563ffffffff1660e01b815260040161171f9493929190614a2c565b60006040518083038186803b15801561173757600080fd5b505af415801561174b573d6000803e3d6000fd5b505050506040513d6000823e3d601f19601f8201168201806040525081019061177491906137aa565b905092915050565b73__$e8bd35486a1fba368bd71b2ccbd41dc03d$__639b34c12660fc60009054906101000a900473ffffffffffffffffffffffffffffffffffffffff166101026117c4611ea6565b8787876040518763ffffffff1660e01b81526004016117e8969594939291906149d0565b60006040518083038186803b15801561180057600080fd5b505af4158015611814573d6000803e3d6000fd5b50505050505050565b6000609760009054906101000a900473ffffffffffffffffffffffffffffffffffffffff16905090565b61184f612824565b73__$62791d5f262a466cbb977fbe52b98315d8$__630318271c836101026040518363ffffffff1660e01b815260040161188a929190614d6d565b60006040518083038186803b1580156118a257600080fd5b505af41580156118b6573d6000803e3d6000fd5b505050506040513d6000823e3d601f19601f820116820180604052508101906118df9190613769565b9050919050565b60fc60009054906101000a900473ffffffffffffffffffffffffffffffffffffffff1673ffffffffffffffffffffffffffffffffffffffff16636352211e836040518263ffffffff1660e01b81526004016119419190614d52565b60206040518083038186803b15801561195957600080fd5b505afa15801561196d573d6000803e3d6000fd5b505050506040513d601f19601f8201168201806040525081019061199191906133de565b73ffffffffffffffffffffffffffffffffffffffff166119af611ea6565b73ffffffffffffffffffffffffffffffffffffffff1614611a05576040517f08c379a00000000000000000000000000000000000000000000000000000000081526004016119fc90614b4c565b60405180910390fd5b80610102600084815260200190815260200160002060090160006101000a81548160ff0219169083151502179055505050565b600073__$e8bd35486a1fba368bd71b2ccbd41dc03d$__632bdab06260fb60009054906101000a900473ffffffffffffffffffffffffffffffffffffffff1660fc60009054906101000a900473ffffffffffffffffffffffffffffffffffffffff16610105610102611aa8611ea6565b886040518763ffffffff1660e01b8152600401611aca969594939291906147b5565b60206040518083038186803b158015611ae257600080fd5b505af4158015611af6573d6000803e3d6000fd5b505050506040513d601f19601f82011682018060405250810190611b1a9190613855565b90507f668f71b1d7300909e5714c4e91202de01d21af234f8d2b8e607c4449d0810d6e611b45611ea6565b8284604051611b5693929190614603565b60405180910390a15050565b6060610103805480602002602001604051908101604052809291908181526020018280548015611be757602002820191906000526020600020905b8160009054906101000a900473ffffffffffffffffffffffffffffffffffffffff1673ffffffffffffffffffffffffffffffffffffffff1681526020019060010190808311611b9d575b5050505050905090565b6060611bfb611ea6565b73ffffffffffffffffffffffffffffffffffffffff16611c1961181d565b73ffffffffffffffffffffffffffffffffffffffff1614611c6f576040517f08c379a0000000000000000000000000000000000000000000000000000000008152600401611c6690614c6c565b60405180910390fd5b73__$62791d5f262a466cbb977fbe52b98315d8$__63d5f1b518848461010060ff6040518563ffffffff1660e01b8152600401611caf9493929190614a2c565b60006040518083038186803b158015611cc757600080fd5b505af4158015611cdb573d6000803e3d6000fd5b505050506040513d6000823e3d601f19601f82011682018060405250810190611d0491906135f6565b905092915050565b611d14611ea6565b73ffffffffffffffffffffffffffffffffffffffff16611d3261181d565b73ffffffffffffffffffffffffffffffffffffffff1614611d88576040517f08c379a0000000000000000000000000000000000000000000000000000000008152600401611d7f90614c6c565b60405180910390fd5b600073ffffffffffffffffffffffffffffffffffffffff168173ffffffffffffffffffffffffffffffffffffffff161415611df8576040517f08c379a0000000000000000000000000000000000000000000000000000000008152600401611def90614b2c565b60405180910390fd5b611e0181612364565b50565b73__$e8bd35486a1fba368bd71b2ccbd41dc03d$__63554798e98383610105610102611e2e611ea6565b60fe60009054906101000a900473ffffffffffffffffffffffffffffffffffffffff166040518763ffffffff1660e01b8152600401611e72969594939291906145a2565b60006040518083038186803b158015611e8a57600080fd5b505af4158015611e9e573d6000803e3d6000fd5b505050505050565b600033905090565b6000611edc7f360894a13ba1a3210667c828492db98dca3e2076cc3735a920a3ca505d382bbc60001b61242a565b60000160009054906101000a900473ffffffffffffffffffffffffffffffffffffffff16905090565b611f0d611ea6565b73ffffffffffffffffffffffffffffffffffffffff16611f2b61181d565b73ffffffffffffffffffffffffffffffffffffffff1614611f81576040517f08c379a0000000000000000000000000000000000000000000000000000000008152600401611f7890614c6c565b60405180910390fd5b600073ffffffffffffffffffffffffffffffffffffffff168173ffffffffffffffffffffffffffffffffffffffff161415611ff1576040517f08c379a0000000000000000000000000000000000000000000000000000000008152600401611fe890614c8c565b60405180910390fd5b50565b6120207f4910fdfa16fed3260ed0e7147f7cc6da11a60208b5b9406d12a635614ffd914360001b612434565b60000160009054906101000a900460ff16156120445761203f8361243e565b61216c565b8273ffffffffffffffffffffffffffffffffffffffff166352d1902d6040518163ffffffff1660e01b815260040160206040518083038186803b15801561208a57600080fd5b505afa9250505080156120bb57506040513d601f19601f820116820180604052508101906120b89190613660565b60015b6120fa576040517f08c379a00000000000000000000000000000000000000000000000000000000081526004016120f190614c2c565b60405180910390fd5b7f360894a13ba1a3210667c828492db98dca3e2076cc3735a920a3ca505d382bbc60001b811461215f576040517f08c379a000000000000000000000000000000000000000000000000000000000815260040161215690614bec565b60405180910390fd5b5061216b8383836124f7565b5b505050565b60008060019054906101000a900460ff16156121e85760018260ff161480156121a0575061219e30612523565b155b6121df576040517f08c379a00000000000000000000000000000000000000000000000000000000081526004016121d690614c0c565b60405180910390fd5b6000905061225c565b8160ff1660008054906101000a900460ff1660ff161061223d576040517f08c379a000000000000000000000000000000000000000000000000000000000815260040161223490614c0c565b60405180910390fd5b816000806101000a81548160ff021916908360ff160217905550600190505b919050565b600060019054906101000a900460ff166122b0576040517f08c379a00000000000000000000000000000000000000000000000000000000081526004016122a790614ccc565b60405180910390fd5b565b600060019054906101000a900460ff16612301576040517f08c379a00000000000000000000000000000000000000000000000000000000081526004016122f890614ccc565b60405180910390fd5b612309612546565b565b600060019054906101000a900460ff1661235a576040517f08c379a000000000000000000000000000000000000000000000000000000000815260040161235190614ccc565b60405180910390fd5b6123626125a7565b565b6000609760009054906101000a900473ffffffffffffffffffffffffffffffffffffffff16905081609760006101000a81548173ffffffffffffffffffffffffffffffffffffffff021916908373ffffffffffffffffffffffffffffffffffffffff1602179055508173ffffffffffffffffffffffffffffffffffffffff168173ffffffffffffffffffffffffffffffffffffffff167f8be0079c531659141344cd1fd0a4f28419497f9722a3daafe3b4186f6b6457e060405160405180910390a35050565b6000819050919050565b6000819050919050565b61244781612523565b612486576040517f08c379a000000000000000000000000000000000000000000000000000000000815260040161247d90614c4c565b60405180910390fd5b806124b37f360894a13ba1a3210667c828492db98dca3e2076cc3735a920a3ca505d382bbc60001b61242a565b60000160006101000a81548173ffffffffffffffffffffffffffffffffffffffff021916908373ffffffffffffffffffffffffffffffffffffffff16021790555050565b61250083612613565b60008251118061250d5750805b1561251e5761251c8383612662565b505b505050565b6000808273ffffffffffffffffffffffffffffffffffffffff163b119050919050565b600060019054906101000a900460ff16612595576040517f08c379a000000000000000000000000000000000000000000000000000000000815260040161258c90614ccc565b60405180910390fd5b6125a56125a0611ea6565b612364565b565b600060019054906101000a900460ff166125f6576040517f08c379a00000000000000000000000000000000000000000000000000000000081526004016125ed90614ccc565b60405180910390fd5b600060c960006101000a81548160ff021916908315150217905550565b61261c8161243e565b8073ffffffffffffffffffffffffffffffffffffffff167fbc7cd75a20ee27fd9adebab32041f755214dbc6bffa90cc0225b39da2e5c2d3b60405160405180910390a250565b606061266d83612523565b6126ac576040517f08c379a00000000000000000000000000000000000000000000000000000000081526004016126a390614cac565b60405180910390fd5b6000808473ffffffffffffffffffffffffffffffffffffffff16846040516126d491906144e0565b600060405180830381855af49150503d806000811461270f576040519150601f19603f3d011682016040523d82523d6000602084013e612714565b606091505b509150915061273c82826040518060600160405280602781526020016156a260279139612746565b9250505092915050565b60608315612756578290506127a6565b6000835111156127695782518084602001fd5b816040517f08c379a000000000000000000000000000000000000000000000000000000000815260040161279d9190614b0a565b60405180910390fd5b9392505050565b60405180610140016040528060008152602001606081526020016000815260200160008152602001600081526020016060815260200160608152602001600081526020016000151581526020016000151581525090565b60405180604001604052806000815260200161281e6128c8565b81525090565b60405180610220016040528060008152602001600073ffffffffffffffffffffffffffffffffffffffff168152602001600081526020016060815260200160008152602001600081526020016000815260200160008152602001606081526020016000151581526020016000151581526020016000151581526020016000151581526020016000151581526020016000815260200160008152602001606081525090565b6040518061028001604052806014905b6128e06128f6565b8152602001906001900390816128d85790505090565b60405180606001604052806000815260200160008152602001606081525090565b600061292a61292584614dbb565b614d96565b9050808382526020820190508285602086028201111561294957600080fd5b60005b8581101561299357815167ffffffffffffffff81111561296b57600080fd5b8086016129788982612ddb565b8552602085019450602084019350505060018101905061294c565b5050509392505050565b60006129b06129ab84614de7565b614d96565b905080828560208602820111156129c657600080fd5b60005b85811015612a1057815167ffffffffffffffff8111156129e857600080fd5b8086016129f5898261303f565b855260208501945060208401935050506001810190506129c9565b5050509392505050565b6000612a2d612a2884614e0d565b614d96565b90508083825260208201905082856020860282011115612a4c57600080fd5b60005b85811015612a9657815167ffffffffffffffff811115612a6e57600080fd5b808601612a7b8982613255565b85526020850194506020840193505050600181019050612a4f565b5050509392505050565b6000612ab3612aae84614e39565b614d96565b90508083825260208201905082856020860282011115612ad257600080fd5b60005b85811015612b025781612ae888826133a0565b845260208401935060208301925050600181019050612ad5565b5050509392505050565b6000612b1f612b1a84614e65565b614d96565b905082815260208101848484011115612b3757600080fd5b612b4284828561514a565b509392505050565b6000612b5d612b5884614e96565b614d96565b905082815260208101848484011115612b7557600080fd5b612b8084828561514a565b509392505050565b6000612b9b612b9684614e96565b614d96565b905082815260208101848484011115612bb357600080fd5b612bbe848285615159565b509392505050565b600081359050612bd58161560e565b92915050565b600081519050612bea8161560e565b92915050565b600082601f830112612c0157600080fd5b8151612c11848260208601612917565b91505092915050565b600082601f830112612c2b57600080fd5b6014612c3884828561299d565b91505092915050565b600082601f830112612c5257600080fd5b8151612c62848260208601612a1a565b91505092915050565b600082601f830112612c7c57600080fd5b8151612c8c848260208601612aa0565b91505092915050565b600081359050612ca481615625565b92915050565b600081519050612cb981615625565b92915050565b600081519050612cce8161563c565b92915050565b600082601f830112612ce557600080fd5b8135612cf5848260208601612b0c565b91505092915050565b600081519050612d0d81615653565b92915050565b600081519050612d2281615663565b92915050565b600081359050612d3781615673565b92915050565b60008083601f840112612d4f57600080fd5b8235905067ffffffffffffffff811115612d6857600080fd5b602083019150836001820283011115612d8057600080fd5b9250929050565b600082601f830112612d9857600080fd5b8135612da8848260208601612b4a565b91505092915050565b600082601f830112612dc257600080fd5b8151612dd2848260208601612b88565b91505092915050565b600060608284031215612ded57600080fd5b612df76060614d96565b90506000612e07848285016133a0565b600083015250602082015167ffffffffffffffff811115612e2757600080fd5b612e3384828501612db1565b602083015250604082015167ffffffffffffffff811115612e5357600080fd5b612e5f84828501612db1565b60408301525092915050565b60006102208284031215612e7e57600080fd5b612e89610220614d96565b90506000612e99848285016133a0565b6000830152506020612ead84828501612bdb565b6020830152506040612ec1848285016133a0565b604083015250606082015167ffffffffffffffff811115612ee157600080fd5b612eed84828501612db1565b6060830152506080612f01848285016133a0565b60808301525060a0612f15848285016133a0565b60a08301525060c0612f29848285016133a0565b60c08301525060e0612f3d848285016133a0565b60e08301525061010082015167ffffffffffffffff811115612f5e57600080fd5b612f6a84828501612db1565b61010083015250610120612f8084828501612caa565b61012083015250610140612f9684828501612caa565b61014083015250610160612fac84828501612caa565b61016083015250610180612fc284828501612caa565b610180830152506101a0612fd884828501612caa565b6101a0830152506101c0612fee848285016133a0565b6101c0830152506101e0613004848285016133a0565b6101e08301525061020082015167ffffffffffffffff81111561302657600080fd5b61303284828501612bf0565b6102008301525092915050565b60006060828403121561305157600080fd5b61305b6060614d96565b9050600061306b848285016133a0565b600083015250602061307f848285016133a0565b602083015250604082015167ffffffffffffffff81111561309f57600080fd5b6130ab84828501612db1565b60408301525092915050565b6000604082840312156130c957600080fd5b6130d36040614d96565b905060006130e3848285016133a0565b600083015250602082015167ffffffffffffffff81111561310357600080fd5b61310f84828501612c1a565b60208301525092915050565b6000610140828403121561312e57600080fd5b613139610140614d96565b90506000613149848285016133a0565b600083015250602082015167ffffffffffffffff81111561316957600080fd5b61317584828501612db1565b6020830152506040613189848285016133a0565b604083015250606061319d848285016133a0565b60608301525060806131b1848285016133a0565b60808301525060a082015167ffffffffffffffff8111156131d157600080fd5b6131dd84828501612db1565b60a08301525060c082015167ffffffffffffffff8111156131fd57600080fd5b61320984828501612c6b565b60c08301525060e061321d848285016133a0565b60e08301525061010061323284828501612caa565b6101008301525061012061324884828501612caa565b6101208301525092915050565b6000610180828403121561326857600080fd5b613273610180614d96565b90506000613283848285016133a0565b600083015250602061329784828501612bdb565b60208301525060406132ab84828501612caa565b60408301525060606132bf848285016133a0565b60608301525060806132d3848285016133a0565b60808301525060a06132e7848285016133a0565b60a08301525060c082015167ffffffffffffffff81111561330757600080fd5b61331384828501612db1565b60c08301525060e061332784828501612cbf565b60e08301525061010061333c84828501612cfe565b6101008301525061012061335284828501612d13565b6101208301525061014061336884828501612caa565b6101408301525061016061337e848285016133a0565b6101608301525092915050565b60008135905061339a8161568a565b92915050565b6000815190506133af8161568a565b92915050565b6000602082840312156133c757600080fd5b60006133d584828501612bc6565b91505092915050565b6000602082840312156133f057600080fd5b60006133fe84828501612bdb565b91505092915050565b6000806040838503121561341a57600080fd5b600061342885828601612bc6565b925050602061343985828601612bc6565b9150509250929050565b6000806040838503121561345657600080fd5b600061346485828601612bc6565b925050602083013567ffffffffffffffff81111561348157600080fd5b61348d85828601612cd4565b9150509250929050565b600080604083850312156134aa57600080fd5b60006134b885828601612bc6565b925050602083013567ffffffffffffffff8111156134d557600080fd5b6134e185828601612d87565b9150509250929050565b600080604083850312156134fe57600080fd5b600061350c85828601612bc6565b925050602061351d8582860161338b565b9150509250929050565b60008060006060848603121561353c57600080fd5b600061354a86828701612bc6565b935050602061355b8682870161338b565b925050604061356c8682870161338b565b9150509250925092565b60008060008060006080868803121561358e57600080fd5b600061359c88828901612bc6565b95505060206135ad8882890161338b565b94505060406135be8882890161338b565b935050606086013567ffffffffffffffff8111156135db57600080fd5b6135e788828901612d3d565b92509250509295509295909350565b60006020828403121561360857600080fd5b600082015167ffffffffffffffff81111561362257600080fd5b61362e84828501612c41565b91505092915050565b60006020828403121561364957600080fd5b600061365784828501612caa565b91505092915050565b60006020828403121561367257600080fd5b600061368084828501612cbf565b91505092915050565b6000806040838503121561369c57600080fd5b60006136aa85828601612d28565b92505060206136bb85828601612d28565b9150509250929050565b600080600080608085870312156136db57600080fd5b60006136e987828801612d28565b94505060206136fa87828801612d28565b935050604061370b8782880161338b565b925050606061371c8782880161338b565b91505092959194509250565b60006020828403121561373a57600080fd5b600082013567ffffffffffffffff81111561375457600080fd5b61376084828501612d87565b91505092915050565b60006020828403121561377b57600080fd5b600082015167ffffffffffffffff81111561379557600080fd5b6137a184828501612e6b565b91505092915050565b6000602082840312156137bc57600080fd5b600082015167ffffffffffffffff8111156137d657600080fd5b6137e2848285016130b7565b91505092915050565b6000602082840312156137fd57600080fd5b600082015167ffffffffffffffff81111561381757600080fd5b6138238482850161311b565b91505092915050565b60006020828403121561383e57600080fd5b600061384c8482850161338b565b91505092915050565b60006020828403121561386757600080fd5b6000613875848285016133a0565b91505092915050565b6000806040838503121561389157600080fd5b600061389f8582860161338b565b92505060206138b085828601612c95565b9150509250929050565b6000806000604084860312156138cf57600080fd5b60006138dd8682870161338b565b935050602084013567ffffffffffffffff8111156138fa57600080fd5b61390686828701612d3d565b92509250509250925092565b6000806000806080858703121561392857600080fd5b60006139368782880161338b565b945050602085013567ffffffffffffffff81111561395357600080fd5b61395f87828801612d87565b93505060406139708782880161338b565b925050606061398187828801612c95565b91505092959194509250565b600061399983836139f9565b60208301905092915050565b60006139b18383614068565b905092915050565b60006139c5838361423a565b905092915050565b60006139d983836143af565b905092915050565b60006139ed83836144b3565b60208301905092915050565b613a028161503d565b82525050565b613a118161503d565b82525050565b613a208161503d565b82525050565b6000613a3182614f11565b613a3b8185614f9f565b9350613a4683614ec7565b8060005b83811015613a77578151613a5e888261398d565b9750613a6983614f5e565b925050600181019050613a4a565b5085935050505092915050565b8082525050565b6000613a9682614f1c565b613aa08185614fb0565b935083602082028501613ab285614ed7565b8060005b85811015613aee5784840389528151613acf85826139a5565b9450613ada83614f6b565b925060208a01995050600181019050613ab6565b50829750879550505050505092915050565b6000613b0b82614f27565b613b158185614fc1565b935083602082028501613b2785614ee7565b8060005b85811015613b635784840389528151613b4485826139b9565b9450613b4f83614f78565b925060208a01995050600181019050613b2b565b50829750879550505050505092915050565b6000613b8082614f32565b613b8a8185614fcc565b935083602082028501613b9c85614ef1565b8060005b85811015613bd85784840389528151613bb985826139cd565b9450613bc483614f85565b925060208a01995050600181019050613ba0565b50829750879550505050505092915050565b6000613bf582614f3d565b613bff8185614fdd565b9350613c0a83614f01565b8060005b83811015613c3b578151613c2288826139e1565b9750613c2d83614f92565b925050600181019050613c0e565b5085935050505092915050565b6000613c5382614f3d565b613c5d8185614fee565b9350613c6883614f01565b8060005b83811015613c99578151613c8088826139e1565b9750613c8b83614f92565b925050600181019050613c6c565b5085935050505092915050565b8082525050565b613cb68161504f565b82525050565b613cc58161504f565b82525050565b613cd48161504f565b82525050565b613ce38161505b565b82525050565b613cf28161505b565b82525050565b6000613d0382614f48565b613d0d8185614fff565b9350613d1d818560208601615159565b80840191505092915050565b613d32816150cc565b82525050565b613d41816150f0565b82525050565b613d5081615114565b82525050565b613d5f81615126565b82525050565b613d6e8161508b565b82525050565b8082525050565b8082525050565b8082525050565b8082525050565b8082525050565b613da081615138565b82525050565b6000613db2838561502c565b9350613dbf83858461514a565b613dc88361521b565b840190509392505050565b6000613dde82614f53565b613de8818561500a565b9350613df8818560208601615159565b613e018161521b565b840191505092915050565b6000613e1782614f53565b613e21818561501b565b9350613e31818560208601615159565b613e3a8161521b565b840191505092915050565b6000613e5082614f53565b613e5a818561502c565b9350613e6a818560208601615159565b613e738161521b565b840191505092915050565b6000613e8b60268361501b565b9150613e968261522c565b604082019050919050565b6000613eae60108361501b565b9150613eb98261527b565b602082019050919050565b6000613ed1602c8361501b565b9150613edc826152a4565b604082019050919050565b6000613ef4602c8361501b565b9150613eff826152f3565b604082019050919050565b6000613f1760128361501b565b9150613f2282615342565b602082019050919050565b6000613f3a60388361501b565b9150613f458261536b565b604082019050919050565b6000613f5d60298361501b565b9150613f68826153ba565b604082019050919050565b6000613f80602e8361501b565b9150613f8b82615409565b604082019050919050565b6000613fa3602e8361501b565b9150613fae82615458565b604082019050919050565b6000613fc6602d8361501b565b9150613fd1826154a7565b604082019050919050565b6000613fe960208361501b565b9150613ff4826154f6565b602082019050919050565b600061400c60118361501b565b91506140178261551f565b602082019050919050565b600061402f60268361501b565b915061403a82615548565b604082019050919050565b6000614052602b8361501b565b915061405d82615597565b604082019050919050565b600060608301600083015161408060008601826144b3565b50602083015184820360208601526140988282613dd3565b915050604083015184820360408601526140b28282613dd3565b9150508091505092915050565b6000610220830160008301516140d860008601826144b3565b5060208301516140eb60208601826139f9565b5060408301516140fe60408601826144b3565b50606083015184820360608601526141168282613dd3565b915050608083015161412b60808601826144b3565b5060a083015161413e60a08601826144b3565b5060c083015161415160c08601826144b3565b5060e083015161416460e08601826144b3565b5061010083015184820361010086015261417e8282613dd3565b915050610120830151614195610120860182613cad565b506101408301516141aa610140860182613cad565b506101608301516141bf610160860182613cad565b506101808301516141d4610180860182613cad565b506101a08301516141e96101a0860182613cad565b506101c08301516141fe6101c08601826144b3565b506101e08301516142136101e08601826144b3565b5061020083015184820361020086015261422d8282613a8b565b9150508091505092915050565b600060608301600083015161425260008601826144b3565b50602083015161426560208601826144b3565b506040830151848203604086015261427d8282613dd3565b9150508091505092915050565b60006040830160008301516142a260008601826144b3565b50602083015184820360208601526142ba8282613b00565b9150508091505092915050565b6000610140830160008301516142e060008601826144b3565b50602083015184820360208601526142f88282613dd3565b915050604083015161430d60408601826144b3565b50606083015161432060608601826144b3565b50608083015161433360808601826144b3565b5060a083015184820360a086015261434b8282613dd3565b91505060c083015184820360c08601526143658282613bea565b91505060e083015161437a60e08601826144b3565b5061010083015161438f610100860182613cad565b506101208301516143a4610120860182613cad565b508091505092915050565b6000610180830160008301516143c860008601826144b3565b5060208301516143db60208601826139f9565b5060408301516143ee6040860182613cad565b50606083015161440160608601826144b3565b50608083015161441460808601826144b3565b5060a083015161442760a08601826144b3565b5060c083015184820360c086015261443f8282613dd3565b91505060e083015161445460e0860182613cda565b50610100830151614469610100860182613d47565b5061012083015161447e610120860182613d56565b50610140830151614493610140860182613cad565b506101608301516144a86101608601826144b3565b508091505092915050565b6144bc816150b5565b82525050565b6144cb816150b5565b82525050565b6144da816150b5565b82525050565b60006144ec8284613cf8565b915081905092915050565b600060208201905061450c6000830184613a08565b92915050565b60006040820190506145276000830185613a17565b6145346020830184613d74565b9392505050565b60006060820190506145506000830186613a17565b61455d6020830185613d74565b818103604083015261456f8184613e45565b9050949350505050565b600060408201905061458e6000830185613a08565b61459b60208301846144c2565b9392505050565b600060c0820190506145b76000830189613a17565b6145c460208301886144d1565b6145d16040830187613d74565b6145de6060830186613d90565b6145eb6080830185613a17565b6145f860a0830184613a17565b979650505050505050565b60006060820190506146186000830186613a08565b61462560208301856144c2565b81810360408301526146378184613e0c565b9050949350505050565b600060a0820190506146566000830188613a08565b61466360208301876144c2565b81810360408301526146758186613e0c565b905061468460608301856144c2565b6146916080830184613cbc565b9695505050505050565b600060208201905081810360008301526146b58184613a26565b905092915050565b6000610100820190506146d3600083018b613a84565b6146e0602083018a613d7b565b6146ed6040830189613d74565b6146fa6060830188613d90565b6147076080830187613ca6565b61471460a0830186613a17565b61472160c08301856144d1565b61472e60e08301846144d1565b9998505050505050505050565b600060208201905081810360008301526147558184613b75565b905092915050565b600060208201905081810360008301526147778184613c48565b905092915050565b60006020820190506147946000830184613cbc565b92915050565b60006020820190506147af6000830184613ce9565b92915050565b600060c0820190506147ca6000830189613d29565b6147d76020830188613d38565b6147e46040830187613d74565b6147f16060830186613d90565b6147fe6080830185613a17565b81810360a08301526148108184613e45565b9050979650505050505050565b60006060820190506148326000830186613d29565b61483f6020830185613d74565b61484c6040830184613a17565b949350505050565b60006101408201905061486a600083018d613d29565b614877602083018c613d74565b614884604083018b613a17565b614891606083018a613a17565b61489e6080830189613a84565b6148ab60a0830188613d7b565b6148b860c08301876144d1565b81810360e08301526148ca8186613e45565b90506148da6101008301856144d1565b6148e8610120830184613ccb565b9b9a5050505050505050505050565b600060c08201905061490c6000830189613d38565b6149196020830188613d74565b6149266040830187613d90565b6149336060830186613a17565b61494060808301856144d1565b61494d60a08301846144d1565b979650505050505050565b600060e08201905061496d600083018b613d38565b61497a602083018a613d74565b6149876040830189613d90565b6149946060830188613a17565b6149a160808301876144d1565b6149ae60a08301866144d1565b81810360c08301526149c1818486613da6565b90509998505050505050505050565b600060a0820190506149e56000830189613d38565b6149f26020830188613d90565b6149ff6040830187613a17565b614a0c60608301866144d1565b8181036080830152614a1f818486613da6565b9050979650505050505050565b6000608082019050614a416000830187613d65565b614a4e6020830186613d65565b614a5b6040830185613d89565b614a686060830184613d82565b95945050505050565b600061010082019050614a87600083018b613d82565b614a94602083018a613d90565b614aa16040830189613d89565b614aae6060830188613ca6565b614abb60808301876144d1565b614ac860a08301866144d1565b614ad560c0830185613d65565b614ae260e0830184613d65565b9998505050505050505050565b6000602082019050614b046000830184613d97565b92915050565b60006020820190508181036000830152614b248184613e0c565b905092915050565b60006020820190508181036000830152614b4581613e7e565b9050919050565b60006020820190508181036000830152614b6581613ea1565b9050919050565b60006020820190508181036000830152614b8581613ec4565b9050919050565b60006020820190508181036000830152614ba581613ee7565b9050919050565b60006020820190508181036000830152614bc581613f0a565b9050919050565b60006020820190508181036000830152614be581613f2d565b9050919050565b60006020820190508181036000830152614c0581613f50565b9050919050565b60006020820190508181036000830152614c2581613f73565b9050919050565b60006020820190508181036000830152614c4581613f96565b9050919050565b60006020820190508181036000830152614c6581613fb9565b9050919050565b60006020820190508181036000830152614c8581613fdc565b9050919050565b60006020820190508181036000830152614ca581613fff565b9050919050565b60006020820190508181036000830152614cc581614022565b9050919050565b60006020820190508181036000830152614ce581614045565b9050919050565b60006020820190508181036000830152614d0681846140bf565b905092915050565b60006020820190508181036000830152614d28818461428a565b905092915050565b60006020820190508181036000830152614d4a81846142c7565b905092915050565b6000602082019050614d6760008301846144c2565b92915050565b6000604082019050614d8260008301856144d1565b614d8f6020830184613d90565b9392505050565b6000614da0614db1565b9050614dac828261518c565b919050565b6000604051905090565b600067ffffffffffffffff821115614dd657614dd56151ec565b5b602082029050602081019050919050565b600067ffffffffffffffff821115614e0257614e016151ec565b5b602082029050919050565b600067ffffffffffffffff821115614e2857614e276151ec565b5b602082029050602081019050919050565b600067ffffffffffffffff821115614e5457614e536151ec565b5b602082029050602081019050919050565b600067ffffffffffffffff821115614e8057614e7f6151ec565b5b614e898261521b565b9050602081019050919050565b600067ffffffffffffffff821115614eb157614eb06151ec565b5b614eba8261521b565b9050602081019050919050565b6000819050602082019050919050565b6000819050602082019050919050565b6000819050919050565b6000819050602082019050919050565b6000819050602082019050919050565b600081519050919050565b600081519050919050565b600060149050919050565b600081519050919050565b600081519050919050565b600081519050919050565b600081519050919050565b6000602082019050919050565b6000602082019050919050565b6000602082019050919050565b6000602082019050919050565b6000602082019050919050565b600082825260208201905092915050565b600082825260208201905092915050565b600081905092915050565b600082825260208201905092915050565b600082825260208201905092915050565b600082825260208201905092915050565b600081905092915050565b600082825260208201905092915050565b600082825260208201905092915050565b600082825260208201905092915050565b600061504882615095565b9050919050565b60008115159050919050565b6000819050919050565b6000819050615073826155e6565b919050565b6000819050615086826155fa565b919050565b6000819050919050565b600073ffffffffffffffffffffffffffffffffffffffff82169050919050565b6000819050919050565b600060ff82169050919050565b60006150d7826150de565b9050919050565b60006150e982615095565b9050919050565b60006150fb82615102565b9050919050565b600061510d82615095565b9050919050565b600061511f82615065565b9050919050565b600061513182615078565b9050919050565b6000615143826150bf565b9050919050565b82818337600083830152505050565b60005b8381101561517757808201518184015260208101905061515c565b83811115615186576000848401525b50505050565b6151958261521b565b810181811067ffffffffffffffff821117156151b4576151b36151ec565b5b80604052505050565b7f4e487b7100000000000000000000000000000000000000000000000000000000600052602160045260246000fd5b7f4e487b7100000000000000000000000000000000000000000000000000000000600052604160045260246000fd5b6000601f19601f8301169050919050565b7f4f776e61626c653a206e6577206f776e657220697320746865207a65726f206160008201527f6464726573730000000000000000000000000000000000000000000000000000602082015250565b7f4e6f74206f776e6572206f66204e667400000000000000000000000000000000600082015250565b7f46756e6374696f6e206d7573742062652063616c6c6564207468726f7567682060008201527f64656c656761746563616c6c0000000000000000000000000000000000000000602082015250565b7f46756e6374696f6e206d7573742062652063616c6c6564207468726f7567682060008201527f6163746976652070726f78790000000000000000000000000000000000000000602082015250565b7f5769746864726177616c206661696c6564210000000000000000000000000000600082015250565b7f555550535570677261646561626c653a206d757374206e6f742062652063616c60008201527f6c6564207468726f7567682064656c656761746563616c6c0000000000000000602082015250565b7f45524331393637557067726164653a20756e737570706f727465642070726f7860008201527f6961626c65555549440000000000000000000000000000000000000000000000602082015250565b7f496e697469616c697a61626c653a20636f6e747261637420697320616c72656160008201527f647920696e697469616c697a6564000000000000000000000000000000000000602082015250565b7f45524331393637557067726164653a206e657720696d706c656d656e7461746960008201527f6f6e206973206e6f742055555053000000000000000000000000000000000000602082015250565b7f455243313936373a206e657720696d706c656d656e746174696f6e206973206e60008201527f6f74206120636f6e747261637400000000000000000000000000000000000000602082015250565b7f4f776e61626c653a2063616c6c6572206973206e6f7420746865206f776e6572600082015250565b7f416464722063616e6e6f7420626520302e000000000000000000000000000000600082015250565b7f416464726573733a2064656c65676174652063616c6c20746f206e6f6e2d636f60008201527f6e74726163740000000000000000000000000000000000000000000000000000602082015250565b7f496e697469616c697a61626c653a20636f6e7472616374206973206e6f74206960008201527f6e697469616c697a696e67000000000000000000000000000000000000000000602082015250565b600381106155f7576155f66151bd565b5b50565b6003811061560b5761560a6151bd565b5b50565b6156178161503d565b811461562257600080fd5b50565b61562e8161504f565b811461563957600080fd5b50565b6156458161505b565b811461565057600080fd5b50565b6003811061566057600080fd5b50565b6003811061567057600080fd5b50565b61567c8161508b565b811461568757600080fd5b50565b615693816150b5565b811461569e57600080fd5b5056fe416464726573733a206c6f772d6c6576656c2064656c65676174652063616c6c206661696c6564a26469706673582212207a4b50bcb36cb0165f42f61ddcecf0b887f1750c62604fbcbecb42b85895450e64736f6c63430008040033",
  "linkReferences": {
    "contracts/lib/SaeConvert.sol": {
      "SaeConvert": [
        {
          "length": 20,
          "start": 2044
        },
        {
          "length": 20,
          "start": 3388
        },
        {
          "length": 20,
          "start": 5540
        }
      ]
    },
    "contracts/lib/SaeStakingFunctions.sol": {
      "SaeStakingFunctions": [
        {
          "length": 20,
          "start": 2731
        },
        {
          "length": 20,
          "start": 2861
        },
        {
          "length": 20,
          "start": 4452
        },
        {
          "length": 20,
          "start": 6144
        },
        {
          "length": 20,
          "start": 6846
        },
        {
          "length": 20,
          "start": 7816
        }
      ]
    },
    "contracts/lib/SaeViews.sol": {
      "SaeViews": [
        {
          "length": 20,
          "start": 3110
        },
        {
          "length": 20,
          "start": 3984
        },
        {
          "length": 20,
          "start": 5987
        },
        {
          "length": 20,
          "start": 6355
        },
        {
          "length": 20,
          "start": 7411
        }
      ]
    }
  },
  "deployedLinkReferences": {
    "contracts/lib/SaeConvert.sol": {
      "SaeConvert": [
        {
          "length": 20,
          "start": 1914
        },
        {
          "length": 20,
          "start": 3258
        },
        {
          "length": 20,
          "start": 5410
        }
      ]
    },
    "contracts/lib/SaeStakingFunctions.sol": {
      "SaeStakingFunctions": [
        {
          "length": 20,
          "start": 2601
        },
        {
          "length": 20,
          "start": 2731
        },
        {
          "length": 20,
          "start": 4322
        },
        {
          "length": 20,
          "start": 6014
        },
        {
          "length": 20,
          "start": 6716
        },
        {
          "length": 20,
          "start": 7686
        }
      ]
    },
    "contracts/lib/SaeViews.sol": {
      "SaeViews": [
        {
          "length": 20,
          "start": 2980
        },
        {
          "length": 20,
          "start": 3854
        },
        {
          "length": 20,
          "start": 5857
        },
        {
          "length": 20,
          "start": 6225
        },
        {
          "length": 20,
          "start": 7281
        }
      ]
    }
  }
}