{
  "_format": "hh-sol-artifact-1",
  "contractName": "MockSaeFtmStakingV2",
  "sourceName": "contracts/mocks/MockSaeFtmStakingV2 .sol",
  "abi": [
    {
      "anonymous": false,
      "inputs": [
        {
          "indexed": false,
          "internalType": "address",
          "name": "previousAdmin",
          "type": "address"
        },
        {
          "indexed": false,
          "internalType": "address",
          "name": "newAdmin",
          "type": "address"
        }
      ],
      "name": "AdminChanged",
      "type": "event"
    },
    {
      "anonymous": false,
      "inputs": [
        {
          "indexed": true,
          "internalType": "address",
          "name": "beacon",
          "type": "address"
        }
      ],
      "name": "BeaconUpgraded",
      "type": "event"
    },
    {
      "anonymous": false,
      "inputs": [
        {
          "indexed": false,
          "internalType": "address",
          "name": "msgSender",
          "type": "address"
        },
        {
          "indexed": false,
          "internalType": "uint256",
          "name": "depositTokenAmount",
          "type": "uint256"
        },
        {
          "indexed": false,
          "internalType": "string",
          "name": "depositTokenType",
          "type": "string"
        },
        {
          "indexed": false,
          "internalType": "uint256",
          "name": "usdAmount",
          "type": "uint256"
        },
        {
          "indexed": false,
          "internalType": "bool",
          "name": "autoCompound",
          "type": "bool"
        }
      ],
      "name": "DepositEvent",
      "type": "event"
    },
    {
      "anonymous": false,
      "inputs": [
        {
          "indexed": false,
          "internalType": "uint8",
          "name": "version",
          "type": "uint8"
        }
      ],
      "name": "Initialized",
      "type": "event"
    },
    {
      "anonymous": false,
      "inputs": [
        {
          "indexed": true,
          "internalType": "address",
          "name": "previousOwner",
          "type": "address"
        },
        {
          "indexed": true,
          "internalType": "address",
          "name": "newOwner",
          "type": "address"
        }
      ],
      "name": "OwnershipTransferred",
      "type": "event"
    },
    {
      "anonymous": false,
      "inputs": [
        {
          "indexed": false,
          "internalType": "address",
          "name": "account",
          "type": "address"
        }
      ],
      "name": "Paused",
      "type": "event"
    },
    {
      "anonymous": false,
      "inputs": [
        {
          "indexed": false,
          "internalType": "address",
          "name": "msgSender",
          "type": "address"
        },
        {
          "indexed": false,
          "internalType": "uint256",
          "name": "divestmentTokenAmount",
          "type": "uint256"
        },
        {
          "indexed": false,
          "internalType": "string",
          "name": "divestmentTokenType",
          "type": "string"
        }
      ],
      "name": "RetrieveDivestmentEvent",
      "type": "event"
    },
    {
      "anonymous": false,
      "inputs": [
        {
          "indexed": false,
          "internalType": "address",
          "name": "account",
          "type": "address"
        }
      ],
      "name": "Unpaused",
      "type": "event"
    },
    {
      "anonymous": false,
      "inputs": [
        {
          "indexed": true,
          "internalType": "address",
          "name": "implementation",
          "type": "address"
        }
      ],
      "name": "Upgraded",
      "type": "event"
    },
    {
      "inputs": [
        {
          "internalType": "int256",
          "name": "month",
          "type": "int256"
        },
        {
          "internalType": "int256",
          "name": "year",
          "type": "int256"
        },
        {
          "internalType": "uint256",
          "name": "totalSaeRewardThisPeriod",
          "type": "uint256"
        },
        {
          "internalType": "uint256",
          "name": "totalSaeStaked",
          "type": "uint256"
        }
      ],
      "name": "assignRewards",
      "outputs": [],
      "stateMutability": "nonpayable",
      "type": "function"
    },
    {
      "inputs": [],
      "name": "claimRewards",
      "outputs": [],
      "stateMutability": "nonpayable",
      "type": "function"
    },
    {
      "inputs": [
        {
          "internalType": "address",
          "name": "investorAddr",
          "type": "address"
        },
        {
          "internalType": "uint256",
          "name": "nftId",
          "type": "uint256"
        },
        {
          "internalType": "uint256",
          "name": "saeAmount",
          "type": "uint256"
        }
      ],
      "name": "convertInvestorDepositToNftValue",
      "outputs": [],
      "stateMutability": "nonpayable",
      "type": "function"
    },
    {
      "inputs": [
        {
          "internalType": "address",
          "name": "investorAddr",
          "type": "address"
        },
        {
          "internalType": "uint256",
          "name": "nftId",
          "type": "uint256"
        },
        {
          "internalType": "uint256",
          "name": "divestmentTokenAmount",
          "type": "uint256"
        },
        {
          "internalType": "string",
          "name": "divestmentTokenType",
          "type": "string"
        }
      ],
      "name": "convertNftValueDivestmentToInvestor",
      "outputs": [],
      "stateMutability": "nonpayable",
      "type": "function"
    },
    {
      "inputs": [
        {
          "internalType": "address",
          "name": "investorAddr",
          "type": "address"
        },
        {
          "internalType": "uint256",
          "name": "nftId",
          "type": "uint256"
        },
        {
          "internalType": "uint256",
          "name": "ftmAmount",
          "type": "uint256"
        }
      ],
      "name": "convertNftValueRewardToInvestor",
      "outputs": [],
      "stateMutability": "nonpayable",
      "type": "function"
    },
    {
      "inputs": [
        {
          "internalType": "uint256",
          "name": "depositAmount",
          "type": "uint256"
        },
        {
          "internalType": "string",
          "name": "depositToken",
          "type": "string"
        },
        {
          "internalType": "uint256",
          "name": "usdInitialAmount",
          "type": "uint256"
        },
        {
          "internalType": "bool",
          "name": "autoCompound",
          "type": "bool"
        }
      ],
      "name": "deposit",
      "outputs": [],
      "stateMutability": "nonpayable",
      "type": "function"
    },
    {
      "inputs": [
        {
          "internalType": "address",
          "name": "erc20Addr",
          "type": "address"
        },
        {
          "internalType": "address",
          "name": "erc721Addr",
          "type": "address"
        }
      ],
      "name": "initialize",
      "outputs": [],
      "stateMutability": "nonpayable",
      "type": "function"
    },
    {
      "inputs": [
        {
          "internalType": "address",
          "name": "investorAddr",
          "type": "address"
        }
      ],
      "name": "investorOf",
      "outputs": [
        {
          "components": [
            {
              "internalType": "uint256",
              "name": "depositTokenAmount",
              "type": "uint256"
            },
            {
              "internalType": "string",
              "name": "depositTokenType",
              "type": "string"
            },
            {
              "internalType": "uint256",
              "name": "usdInitialDeposit",
              "type": "uint256"
            },
            {
              "internalType": "uint256",
              "name": "ftmReward",
              "type": "uint256"
            },
            {
              "internalType": "uint256",
              "name": "divestmentTokenAmount",
              "type": "uint256"
            },
            {
              "internalType": "string",
              "name": "divestmentTokenType",
              "type": "string"
            },
            {
              "internalType": "uint256[]",
              "name": "burnedNftIds",
              "type": "uint256[]"
            },
            {
              "internalType": "uint256",
              "name": "purchaseTimestamp",
              "type": "uint256"
            },
            {
              "internalType": "bool",
              "name": "isCompound",
              "type": "bool"
            },
            {
              "internalType": "bool",
              "name": "isValue",
              "type": "bool"
            }
          ],
          "internalType": "struct SaeStakingTypes.PubInvestor",
          "name": "",
          "type": "tuple"
        }
      ],
      "stateMutability": "view",
      "type": "function"
    },
    {
      "inputs": [
        {
          "internalType": "address",
          "name": "investorAddr",
          "type": "address"
        },
        {
          "internalType": "string",
          "name": "divestmentType",
          "type": "string"
        }
      ],
      "name": "investorOfWithDivestmentAmount",
      "outputs": [
        {
          "components": [
            {
              "internalType": "uint256",
              "name": "depositTokenAmount",
              "type": "uint256"
            },
            {
              "internalType": "string",
              "name": "depositTokenType",
              "type": "string"
            },
            {
              "internalType": "uint256",
              "name": "usdInitialDeposit",
              "type": "uint256"
            },
            {
              "internalType": "uint256",
              "name": "ftmReward",
              "type": "uint256"
            },
            {
              "internalType": "uint256",
              "name": "divestmentTokenAmount",
              "type": "uint256"
            },
            {
              "internalType": "string",
              "name": "divestmentTokenType",
              "type": "string"
            },
            {
              "internalType": "uint256[]",
              "name": "burnedNftIds",
              "type": "uint256[]"
            },
            {
              "internalType": "uint256",
              "name": "purchaseTimestamp",
              "type": "uint256"
            },
            {
              "internalType": "bool",
              "name": "isCompound",
              "type": "bool"
            },
            {
              "internalType": "bool",
              "name": "isValue",
              "type": "bool"
            }
          ],
          "internalType": "struct SaeStakingTypes.PubInvestor",
          "name": "",
          "type": "tuple"
        }
      ],
      "stateMutability": "view",
      "type": "function"
    },
    {
      "inputs": [],
      "name": "nftValueIds",
      "outputs": [
        {
          "internalType": "uint256[]",
          "name": "",
          "type": "uint256[]"
        }
      ],
      "stateMutability": "view",
      "type": "function"
    },
    {
      "inputs": [
        {
          "internalType": "uint256",
          "name": "nftId",
          "type": "uint256"
        }
      ],
      "name": "nftValueOf",
      "outputs": [
        {
          "components": [
            {
              "internalType": "uint256",
              "name": "nftId",
              "type": "uint256"
            },
            {
              "internalType": "address",
              "name": "nftOwner",
              "type": "address"
            },
            {
              "internalType": "uint256",
              "name": "initialDepositTokenAmount",
              "type": "uint256"
            },
            {
              "internalType": "string",
              "name": "initialDepositTokenType",
              "type": "string"
            },
            {
              "internalType": "uint256",
              "name": "usdInitialDeposit",
              "type": "uint256"
            },
            {
              "internalType": "uint256",
              "name": "saeReward",
              "type": "uint256"
            },
            {
              "internalType": "uint256",
              "name": "saeBalance",
              "type": "uint256"
            },
            {
              "internalType": "uint256",
              "name": "saeDivestment",
              "type": "uint256"
            },
            {
              "internalType": "string",
              "name": "divestmentTokenType",
              "type": "string"
            },
            {
              "internalType": "bool",
              "name": "isCompound",
              "type": "bool"
            },
            {
              "internalType": "bool",
              "name": "isDivesting",
              "type": "bool"
            },
            {
              "internalType": "bool",
              "name": "isTransferred",
              "type": "bool"
            },
            {
              "internalType": "bool",
              "name": "isBurned",
              "type": "bool"
            },
            {
              "internalType": "bool",
              "name": "isValue",
              "type": "bool"
            },
            {
              "internalType": "uint256",
              "name": "monthlyRewardPercentage",
              "type": "uint256"
            },
            {
              "internalType": "uint256",
              "name": "purchaseTimestamp",
              "type": "uint256"
            },
            {
              "components": [
                {
                  "internalType": "uint256",
                  "name": "timestamp",
                  "type": "uint256"
                },
                {
                  "internalType": "string",
                  "name": "activity",
                  "type": "string"
                },
                {
                  "internalType": "string",
                  "name": "mutation",
                  "type": "string"
                }
              ],
              "internalType": "struct SaeStakingTypes.Activity[]",
              "name": "history",
              "type": "tuple[]"
            }
          ],
          "internalType": "struct SaeStakingTypes.NftValue",
          "name": "",
          "type": "tuple"
        }
      ],
      "stateMutability": "view",
      "type": "function"
    },
    {
      "inputs": [],
      "name": "owner",
      "outputs": [
        {
          "internalType": "address",
          "name": "",
          "type": "address"
        }
      ],
      "stateMutability": "view",
      "type": "function"
    },
    {
      "inputs": [],
      "name": "paused",
      "outputs": [
        {
          "internalType": "bool",
          "name": "",
          "type": "bool"
        }
      ],
      "stateMutability": "view",
      "type": "function"
    },
    {
      "inputs": [],
      "name": "pendingInvestorList",
      "outputs": [
        {
          "internalType": "address[]",
          "name": "",
          "type": "address[]"
        }
      ],
      "stateMutability": "view",
      "type": "function"
    },
    {
      "inputs": [],
      "name": "proxiableUUID",
      "outputs": [
        {
          "internalType": "bytes32",
          "name": "",
          "type": "bytes32"
        }
      ],
      "stateMutability": "view",
      "type": "function"
    },
    {
      "inputs": [],
      "name": "renounceOwnership",
      "outputs": [],
      "stateMutability": "nonpayable",
      "type": "function"
    },
    {
      "inputs": [
        {
          "internalType": "uint256",
          "name": "nftId",
          "type": "uint256"
        },
        {
          "internalType": "string",
          "name": "divestmentTokenType",
          "type": "string"
        }
      ],
      "name": "requestDivestmentNextMonth",
      "outputs": [],
      "stateMutability": "nonpayable",
      "type": "function"
    },
    {
      "inputs": [
        {
          "internalType": "string",
          "name": "divestmentTokenType",
          "type": "string"
        }
      ],
      "name": "retrieveDivestment",
      "outputs": [],
      "stateMutability": "nonpayable",
      "type": "function"
    },
    {
      "inputs": [
        {
          "internalType": "address",
          "name": "owner",
          "type": "address"
        },
        {
          "internalType": "uint256",
          "name": "index",
          "type": "uint256"
        }
      ],
      "name": "tokenOfOwnerByIndex",
      "outputs": [
        {
          "internalType": "uint256",
          "name": "",
          "type": "uint256"
        }
      ],
      "stateMutability": "view",
      "type": "function"
    },
    {
      "inputs": [
        {
          "internalType": "int256",
          "name": "month",
          "type": "int256"
        },
        {
          "internalType": "int256",
          "name": "year",
          "type": "int256"
        }
      ],
      "name": "totalSaePayoutOf",
      "outputs": [
        {
          "components": [
            {
              "internalType": "uint256",
              "name": "totalSaePayout",
              "type": "uint256"
            },
            {
              "components": [
                {
                  "internalType": "uint256",
                  "name": "saeDivestment",
                  "type": "uint256"
                },
                {
                  "internalType": "uint256",
                  "name": "saeRewardsThisPeriod",
                  "type": "uint256"
                },
                {
                  "internalType": "string",
                  "name": "divestmentTokenType",
                  "type": "string"
                }
              ],
              "internalType": "struct SaeStakingTypes.PayoutPerToken[20]",
              "name": "totalPayoutPerToken",
              "type": "tuple[20]"
            }
          ],
          "internalType": "struct SaeStakingTypes.Payout",
          "name": "",
          "type": "tuple"
        }
      ],
      "stateMutability": "view",
      "type": "function"
    },
    {
      "inputs": [
        {
          "internalType": "int256",
          "name": "month",
          "type": "int256"
        },
        {
          "internalType": "int256",
          "name": "year",
          "type": "int256"
        }
      ],
      "name": "transactionOf",
      "outputs": [
        {
          "components": [
            {
              "internalType": "uint256",
              "name": "nftId",
              "type": "uint256"
            },
            {
              "internalType": "address",
              "name": "investorAddr",
              "type": "address"
            },
            {
              "internalType": "bool",
              "name": "isValue",
              "type": "bool"
            },
            {
              "internalType": "uint256",
              "name": "saeBalance",
              "type": "uint256"
            },
            {
              "internalType": "uint256",
              "name": "saeDivestment",
              "type": "uint256"
            },
            {
              "internalType": "uint256",
              "name": "saeRewardsThisPeriod",
              "type": "uint256"
            },
            {
              "internalType": "string",
              "name": "divestmentTokenType",
              "type": "string"
            },
            {
              "internalType": "bytes32",
              "name": "periodId",
              "type": "bytes32"
            },
            {
              "internalType": "enum SaeStakingTypes.NftStatus",
              "name": "nftStatus",
              "type": "uint8"
            },
            {
              "internalType": "enum SaeStakingTypes.NftStrategy",
              "name": "nftStrategy",
              "type": "uint8"
            },
            {
              "internalType": "bool",
              "name": "accrue",
              "type": "bool"
            },
            {
              "internalType": "uint256",
              "name": "createdTimestamp",
              "type": "uint256"
            }
          ],
          "internalType": "struct SaeStakingTypes.Transaction[]",
          "name": "",
          "type": "tuple[]"
        }
      ],
      "stateMutability": "view",
      "type": "function"
    },
    {
      "inputs": [
        {
          "internalType": "address",
          "name": "to",
          "type": "address"
        },
        {
          "internalType": "uint256",
          "name": "tokenId",
          "type": "uint256"
        }
      ],
      "name": "transferErc721",
      "outputs": [],
      "stateMutability": "nonpayable",
      "type": "function"
    },
    {
      "inputs": [
        {
          "internalType": "address",
          "name": "newOwner",
          "type": "address"
        }
      ],
      "name": "transferOwnership",
      "outputs": [],
      "stateMutability": "nonpayable",
      "type": "function"
    },
    {
      "inputs": [
        {
          "internalType": "uint256",
          "name": "nftId",
          "type": "uint256"
        },
        {
          "internalType": "bool",
          "name": "autoCompound",
          "type": "bool"
        }
      ],
      "name": "updateCompoundStatus",
      "outputs": [],
      "stateMutability": "nonpayable",
      "type": "function"
    },
    {
      "inputs": [
        {
          "internalType": "address",
          "name": "newImplementation",
          "type": "address"
        }
      ],
      "name": "upgradeTo",
      "outputs": [],
      "stateMutability": "nonpayable",
      "type": "function"
    },
    {
      "inputs": [
        {
          "internalType": "address",
          "name": "newImplementation",
          "type": "address"
        },
        {
          "internalType": "bytes",
          "name": "data",
          "type": "bytes"
        }
      ],
      "name": "upgradeToAndCall",
      "outputs": [],
      "stateMutability": "payable",
      "type": "function"
    },
    {
      "inputs": [],
      "name": "version",
      "outputs": [
        {
          "internalType": "string",
          "name": "",
          "type": "string"
        }
      ],
      "stateMutability": "pure",
      "type": "function"
    },
    {
      "inputs": [
        {
          "internalType": "address",
          "name": "withdrawalAddr",
          "type": "address"
        }
      ],
      "name": "withdraw",
      "outputs": [],
      "stateMutability": "nonpayable",
      "type": "function"
    }
  ],
  "bytecode": "0x60a06040523073ffffffffffffffffffffffffffffffffffffffff1660809073ffffffffffffffffffffffffffffffffffffffff1660601b81525034801561004657600080fd5b5060805160601c6157816200008260003960008181610844015281816108d301528181610feb0152818161107a015261143501526157816000f3fe6080604052600436106101b75760003560e01c806354fd4d50116100ec578063a9900aae1161008a578063d97f22d411610064578063d97f22d4146105d1578063dc3ac6fd146105fc578063f2fde38b14610639578063ff4610cd14610662576101b7565b8063a9900aae14610542578063c8a1a5f31461057f578063d699744b146105a8576101b7565b8063715018a6116100c6578063715018a61461049a57806371d23f2f146104b15780638458a490146104ee5780638da5cb5b14610517576101b7565b806354fd4d501461041b5780635719c242146104465780635c975abb1461046f576101b7565b8063467b321c116101595780634f1ef286116101335780634f1ef286146103825780634f7f940b1461039e57806351cff8d9146103c757806352d1902d146103f0576101b7565b8063467b321c146102f3578063485cc9551461031c5780634dffeb6914610345576101b7565b806336c441961161019557806336c441961461024b578063372500ab146102745780633c978fbb1461028b57806342133a5e146102b6576101b7565b80632f745c59146101bc578063306cc627146101f95780633659cfe614610222575b600080fd5b3480156101c857600080fd5b506101e360048036038101906101de919061356e565b61068b565b6040516101f09190614dd5565b60405180910390f35b34801561020557600080fd5b50610220600480360381019061021b91906135aa565b610742565b005b34801561022e57600080fd5b5061024960048036038101906102449190613438565b610842565b005b34801561025757600080fd5b50610272600480360381019061026d9190613748565b6109f1565b005b34801561028057600080fd5b50610289610aef565b005b34801561029757600080fd5b506102a0610b87565b6040516102ad91906147e0565b60405180910390f35b3480156102c257600080fd5b506102dd60048036038101906102d8919061351a565b610be0565b6040516102ea9190614db3565b60405180910390f35b3480156102ff57600080fd5b5061031a600480360381019061031591906135f9565b610c82565b005b34801561032857600080fd5b50610343600480360381019061033e919061348a565b610da0565b005b34801561035157600080fd5b5061036c60048036038101906103679190613438565b610f4a565b6040516103799190614db3565b60405180910390f35b61039c600480360381019061039791906134c6565b610fe9565b005b3480156103aa57600080fd5b506103c560048036038101906103c09190613995565b611126565b005b3480156103d357600080fd5b506103ee60048036038101906103e99190613438565b61121a565b005b3480156103fc57600080fd5b50610405611431565b604051610412919061481d565b60405180910390f35b34801561042757600080fd5b506104306114ea565b60405161043d9190614b8d565b60405180910390f35b34801561045257600080fd5b5061046d600480360381019061046891906135aa565b611527565b005b34801561047b57600080fd5b5061048461163f565b6040516104919190614802565b60405180910390f35b3480156104a657600080fd5b506104af611656565b005b3480156104bd57600080fd5b506104d860048036038101906104d3919061370c565b6116de565b6040516104e59190614d91565b60405180910390f35b3480156104fa57600080fd5b506105156004803603810190610510919061393d565b6117ff565b005b34801561052357600080fd5b5061052c6118a0565b604051610539919061457a565b60405180910390f35b34801561054e57600080fd5b50610569600480360381019061056491906138af565b6118ca565b6040516105769190614d6f565b60405180910390f35b34801561058b57600080fd5b506105a660048036038101906105a19190613901565b611969565b005b3480156105b457600080fd5b506105cf60048036038101906105ca91906137ab565b611abb565b005b3480156105dd57600080fd5b506105e6611be5565b6040516105f3919061471e565b60405180910390f35b34801561060857600080fd5b50610623600480360381019061061e919061370c565b611c74565b60405161063091906147be565b60405180910390f35b34801561064557600080fd5b50610660600480360381019061065b9190613438565b611d8f565b005b34801561066e57600080fd5b506106896004803603810190610684919061356e565b611e87565b005b600060fc60009054906101000a900473ffffffffffffffffffffffffffffffffffffffff1673ffffffffffffffffffffffffffffffffffffffff16630f7939a384846040518363ffffffff1660e01b81526004016106ea9291906145fc565b60206040518083038186803b15801561070257600080fd5b505afa158015610716573d6000803e3d6000fd5b505050506040513d601f19601f8201168201806040525081019061073a91906138d8565b905092915050565b61074a611f29565b73ffffffffffffffffffffffffffffffffffffffff166107686118a0565b73ffffffffffffffffffffffffffffffffffffffff16146107be576040517f08c379a00000000000000000000000000000000000000000000000000000000081526004016107b590614cef565b60405180910390fd5b73__$bc0bb8a61bba2a119260ac738e7f529aa2$__635969627b6101036101046101056101026101018989896040518963ffffffff1660e01b815260040161080d989796959493929190614740565b60006040518083038186803b15801561082557600080fd5b505af4158015610839573d6000803e3d6000fd5b50505050505050565b7f000000000000000000000000000000000000000000000000000000000000000073ffffffffffffffffffffffffffffffffffffffff163073ffffffffffffffffffffffffffffffffffffffff1614156108d1576040517f08c379a00000000000000000000000000000000000000000000000000000000081526004016108c890614bef565b60405180910390fd5b7f000000000000000000000000000000000000000000000000000000000000000073ffffffffffffffffffffffffffffffffffffffff16610910611f31565b73ffffffffffffffffffffffffffffffffffffffff1614610966576040517f08c379a000000000000000000000000000000000000000000000000000000000815260040161095d90614c0f565b60405180910390fd5b61096f81611f88565b6109ee81600067ffffffffffffffff8111156109b4577f4e487b7100000000000000000000000000000000000000000000000000000000600052604160045260246000fd5b6040519080825280601f01601f1916602001820160405280156109e65781602001600182028036833780820191505090505b506000612077565b50565b6109f9611f29565b73ffffffffffffffffffffffffffffffffffffffff16610a176118a0565b73ffffffffffffffffffffffffffffffffffffffff1614610a6d576040517f08c379a0000000000000000000000000000000000000000000000000000000008152600401610a6490614cef565b60405180910390fd5b73__$e8bd35486a1fba368bd71b2ccbd41dc03d$__632e4c4a1d60ff61010261010061010187878b8b6040518963ffffffff1660e01b8152600401610ab9989796959493929190614af4565b60006040518083038186803b158015610ad157600080fd5b505af4158015610ae5573d6000803e3d6000fd5b5050505050505050565b73__$e8bd35486a1fba368bd71b2ccbd41dc03d$__63f511a6d260fb60009054906101000a900473ffffffffffffffffffffffffffffffffffffffff16610105610b37611f29565b6040518463ffffffff1660e01b8152600401610b55939291906148a0565b60006040518083038186803b158015610b6d57600080fd5b505af4158015610b81573d6000803e3d6000fd5b50505050565b6060610101805480602002602001604051908101604052809291908181526020018280548015610bd657602002820191906000526020600020905b815481526020019060010190808311610bc2575b5050505050905090565b610be8612830565b73__$62791d5f262a466cbb977fbe52b98315d8$__63651b06f184610105856040518463ffffffff1660e01b8152600401610c25939291906145be565b60006040518083038186803b158015610c3d57600080fd5b505af4158015610c51573d6000803e3d6000fd5b505050506040513d6000823e3d601f19601f82011682018060405250810190610c7a919061386e565b905092915050565b610c8a611f29565b73ffffffffffffffffffffffffffffffffffffffff16610ca86118a0565b73ffffffffffffffffffffffffffffffffffffffff1614610cfe576040517f08c379a0000000000000000000000000000000000000000000000000000000008152600401610cf590614cef565b60405180910390fd5b73__$bc0bb8a61bba2a119260ac738e7f529aa2$__639106d15c60fc60009054906101000a900473ffffffffffffffffffffffffffffffffffffffff1661010561010289898989896040518963ffffffff1660e01b8152600401610d699897969594939291906149db565b60006040518083038186803b158015610d8157600080fd5b505af4158015610d95573d6000803e3d6000fd5b505050505050505050565b6000610dac60016121f4565b90508015610dd0576001600060016101000a81548160ff0219169083151502179055505b610dd86122e4565b610de0612335565b610de861238e565b8260fd60006101000a81548173ffffffffffffffffffffffffffffffffffffffff021916908373ffffffffffffffffffffffffffffffffffffffff1602179055508160fe60006101000a81548173ffffffffffffffffffffffffffffffffffffffff021916908373ffffffffffffffffffffffffffffffffffffffff1602179055508260fb60006101000a81548173ffffffffffffffffffffffffffffffffffffffff021916908373ffffffffffffffffffffffffffffffffffffffff1602179055508160fc60006101000a81548173ffffffffffffffffffffffffffffffffffffffff021916908373ffffffffffffffffffffffffffffffffffffffff1602179055508015610f455760008060016101000a81548160ff0219169083151502179055507f7f26b83ff96e1f2b6a682f133852f6798a09c465da95921460cefb38474024986001604051610f3c9190614b72565b60405180910390a15b505050565b610f52612830565b73__$62791d5f262a466cbb977fbe52b98315d8$__63fafb00e8836101056040518363ffffffff1660e01b8152600401610f8d929190614595565b60006040518083038186803b158015610fa557600080fd5b505af4158015610fb9573d6000803e3d6000fd5b505050506040513d6000823e3d601f19601f82011682018060405250810190610fe2919061386e565b9050919050565b7f000000000000000000000000000000000000000000000000000000000000000073ffffffffffffffffffffffffffffffffffffffff163073ffffffffffffffffffffffffffffffffffffffff161415611078576040517f08c379a000000000000000000000000000000000000000000000000000000000815260040161106f90614bef565b60405180910390fd5b7f000000000000000000000000000000000000000000000000000000000000000073ffffffffffffffffffffffffffffffffffffffff166110b7611f31565b73ffffffffffffffffffffffffffffffffffffffff161461110d576040517f08c379a000000000000000000000000000000000000000000000000000000000815260040161110490614c0f565b60405180910390fd5b61111682611f88565b61112282826001612077565b5050565b73__$e8bd35486a1fba368bd71b2ccbd41dc03d$__63bc790c8c60fb60009054906101000a900473ffffffffffffffffffffffffffffffffffffffff1661010561116e611f29565b306101036101048b8b8b8b6040518b63ffffffff1660e01b815260040161119e9a999897969594939291906148d7565b60006040518083038186803b1580156111b657600080fd5b505af41580156111ca573d6000803e3d6000fd5b505050507f3128a64ff4d6d5f7be723a7c3a9e21ca8ed0fff1760b8912847ee2a3c1c786356111f7611f29565b8585858560405161120c9594939291906146c4565b60405180910390a150505050565b611222611f29565b73ffffffffffffffffffffffffffffffffffffffff166112406118a0565b73ffffffffffffffffffffffffffffffffffffffff1614611296576040517f08c379a000000000000000000000000000000000000000000000000000000000815260040161128d90614cef565b60405180910390fd5b60fb60009054906101000a900473ffffffffffffffffffffffffffffffffffffffff1673ffffffffffffffffffffffffffffffffffffffff1663a9059cbb8260fb60009054906101000a900473ffffffffffffffffffffffffffffffffffffffff1673ffffffffffffffffffffffffffffffffffffffff166370a08231306040518263ffffffff1660e01b8152600401611330919061457a565b60206040518083038186803b15801561134857600080fd5b505afa15801561135c573d6000803e3d6000fd5b505050506040513d601f19601f8201168201806040525081019061138091906138d8565b6040518363ffffffff1660e01b815260040161139d9291906145fc565b602060405180830381600087803b1580156113b757600080fd5b505af11580156113cb573d6000803e3d6000fd5b505050506040513d601f19601f820116820180604052508101906113ef91906136ba565b61142e576040517f08c379a000000000000000000000000000000000000000000000000000000000815260040161142590614c2f565b60405180910390fd5b50565b60007f000000000000000000000000000000000000000000000000000000000000000073ffffffffffffffffffffffffffffffffffffffff163073ffffffffffffffffffffffffffffffffffffffff16146114c1576040517f08c379a00000000000000000000000000000000000000000000000000000000081526004016114b890614c4f565b60405180910390fd5b7f360894a13ba1a3210667c828492db98dca3e2076cc3735a920a3ca505d382bbc60001b905090565b60606040518060400160405280600381526020017f7632210000000000000000000000000000000000000000000000000000000000815250905090565b61152f611f29565b73ffffffffffffffffffffffffffffffffffffffff1661154d6118a0565b73ffffffffffffffffffffffffffffffffffffffff16146115a3576040517f08c379a000000000000000000000000000000000000000000000000000000000815260040161159a90614cef565b60405180910390fd5b73__$bc0bb8a61bba2a119260ac738e7f529aa2$__63ecf1054460fc60009054906101000a900473ffffffffffffffffffffffffffffffffffffffff166101056101028787876040518763ffffffff1660e01b815260040161160a9695949392919061497a565b60006040518083038186803b15801561162257600080fd5b505af4158015611636573d6000803e3d6000fd5b50505050505050565b600060c960009054906101000a900460ff16905090565b61165e611f29565b73ffffffffffffffffffffffffffffffffffffffff1661167c6118a0565b73ffffffffffffffffffffffffffffffffffffffff16146116d2576040517f08c379a00000000000000000000000000000000000000000000000000000000081526004016116c990614cef565b60405180910390fd5b6116dc60006123e7565b565b6116e6612887565b6116ee611f29565b73ffffffffffffffffffffffffffffffffffffffff1661170c6118a0565b73ffffffffffffffffffffffffffffffffffffffff1614611762576040517f08c379a000000000000000000000000000000000000000000000000000000000815260040161175990614cef565b60405180910390fd5b73__$62791d5f262a466cbb977fbe52b98315d8$__637d87673a848461010060ff6040518563ffffffff1660e01b81526004016117a29493929190614aaf565b60006040518083038186803b1580156117ba57600080fd5b505af41580156117ce573d6000803e3d6000fd5b505050506040513d6000823e3d601f19601f820116820180604052508101906117f7919061382d565b905092915050565b73__$e8bd35486a1fba368bd71b2ccbd41dc03d$__639b34c12660fc60009054906101000a900473ffffffffffffffffffffffffffffffffffffffff16610102611847611f29565b8787876040518763ffffffff1660e01b815260040161186b96959493929190614a53565b60006040518083038186803b15801561188357600080fd5b505af4158015611897573d6000803e3d6000fd5b50505050505050565b6000609760009054906101000a900473ffffffffffffffffffffffffffffffffffffffff16905090565b6118d26128a7565b73__$62791d5f262a466cbb977fbe52b98315d8$__630318271c836101026040518363ffffffff1660e01b815260040161190d929190614df0565b60006040518083038186803b15801561192557600080fd5b505af4158015611939573d6000803e3d6000fd5b505050506040513d6000823e3d601f19601f8201168201806040525081019061196291906137ec565b9050919050565b60fc60009054906101000a900473ffffffffffffffffffffffffffffffffffffffff1673ffffffffffffffffffffffffffffffffffffffff16636352211e836040518263ffffffff1660e01b81526004016119c49190614dd5565b60206040518083038186803b1580156119dc57600080fd5b505afa1580156119f0573d6000803e3d6000fd5b505050506040513d601f19601f82011682018060405250810190611a149190613461565b73ffffffffffffffffffffffffffffffffffffffff16611a32611f29565b73ffffffffffffffffffffffffffffffffffffffff1614611a88576040517f08c379a0000000000000000000000000000000000000000000000000000000008152600401611a7f90614bcf565b60405180910390fd5b80610102600084815260200190815260200160002060090160006101000a81548160ff0219169083151502179055505050565b600073__$e8bd35486a1fba368bd71b2ccbd41dc03d$__632bdab06260fb60009054906101000a900473ffffffffffffffffffffffffffffffffffffffff1660fc60009054906101000a900473ffffffffffffffffffffffffffffffffffffffff16610105610102611b2b611f29565b886040518763ffffffff1660e01b8152600401611b4d96959493929190614838565b60206040518083038186803b158015611b6557600080fd5b505af4158015611b79573d6000803e3d6000fd5b505050506040513d601f19601f82011682018060405250810190611b9d91906138d8565b90507f668f71b1d7300909e5714c4e91202de01d21af234f8d2b8e607c4449d0810d6e611bc8611f29565b8284604051611bd993929190614686565b60405180910390a15050565b6060610103805480602002602001604051908101604052809291908181526020018280548015611c6a57602002820191906000526020600020905b8160009054906101000a900473ffffffffffffffffffffffffffffffffffffffff1673ffffffffffffffffffffffffffffffffffffffff1681526020019060010190808311611c20575b5050505050905090565b6060611c7e611f29565b73ffffffffffffffffffffffffffffffffffffffff16611c9c6118a0565b73ffffffffffffffffffffffffffffffffffffffff1614611cf2576040517f08c379a0000000000000000000000000000000000000000000000000000000008152600401611ce990614cef565b60405180910390fd5b73__$62791d5f262a466cbb977fbe52b98315d8$__63d5f1b518848461010060ff6040518563ffffffff1660e01b8152600401611d329493929190614aaf565b60006040518083038186803b158015611d4a57600080fd5b505af4158015611d5e573d6000803e3d6000fd5b505050506040513d6000823e3d601f19601f82011682018060405250810190611d879190613679565b905092915050565b611d97611f29565b73ffffffffffffffffffffffffffffffffffffffff16611db56118a0565b73ffffffffffffffffffffffffffffffffffffffff1614611e0b576040517f08c379a0000000000000000000000000000000000000000000000000000000008152600401611e0290614cef565b60405180910390fd5b600073ffffffffffffffffffffffffffffffffffffffff168173ffffffffffffffffffffffffffffffffffffffff161415611e7b576040517f08c379a0000000000000000000000000000000000000000000000000000000008152600401611e7290614baf565b60405180910390fd5b611e84816123e7565b50565b73__$e8bd35486a1fba368bd71b2ccbd41dc03d$__63554798e98383610105610102611eb1611f29565b60fe60009054906101000a900473ffffffffffffffffffffffffffffffffffffffff166040518763ffffffff1660e01b8152600401611ef596959493929190614625565b60006040518083038186803b158015611f0d57600080fd5b505af4158015611f21573d6000803e3d6000fd5b505050505050565b600033905090565b6000611f5f7f360894a13ba1a3210667c828492db98dca3e2076cc3735a920a3ca505d382bbc60001b6124ad565b60000160009054906101000a900473ffffffffffffffffffffffffffffffffffffffff16905090565b611f90611f29565b73ffffffffffffffffffffffffffffffffffffffff16611fae6118a0565b73ffffffffffffffffffffffffffffffffffffffff1614612004576040517f08c379a0000000000000000000000000000000000000000000000000000000008152600401611ffb90614cef565b60405180910390fd5b600073ffffffffffffffffffffffffffffffffffffffff168173ffffffffffffffffffffffffffffffffffffffff161415612074576040517f08c379a000000000000000000000000000000000000000000000000000000000815260040161206b90614d0f565b60405180910390fd5b50565b6120a37f4910fdfa16fed3260ed0e7147f7cc6da11a60208b5b9406d12a635614ffd914360001b6124b7565b60000160009054906101000a900460ff16156120c7576120c2836124c1565b6121ef565b8273ffffffffffffffffffffffffffffffffffffffff166352d1902d6040518163ffffffff1660e01b815260040160206040518083038186803b15801561210d57600080fd5b505afa92505050801561213e57506040513d601f19601f8201168201806040525081019061213b91906136e3565b60015b61217d576040517f08c379a000000000000000000000000000000000000000000000000000000000815260040161217490614caf565b60405180910390fd5b7f360894a13ba1a3210667c828492db98dca3e2076cc3735a920a3ca505d382bbc60001b81146121e2576040517f08c379a00000000000000000000000000000000000000000000000000000000081526004016121d990614c6f565b60405180910390fd5b506121ee83838361257a565b5b505050565b60008060019054906101000a900460ff161561226b5760018260ff161480156122235750612221306125a6565b155b612262576040517f08c379a000000000000000000000000000000000000000000000000000000000815260040161225990614c8f565b60405180910390fd5b600090506122df565b8160ff1660008054906101000a900460ff1660ff16106122c0576040517f08c379a00000000000000000000000000000000000000000000000000000000081526004016122b790614c8f565b60405180910390fd5b816000806101000a81548160ff021916908360ff160217905550600190505b919050565b600060019054906101000a900460ff16612333576040517f08c379a000000000000000000000000000000000000000000000000000000000815260040161232a90614d4f565b60405180910390fd5b565b600060019054906101000a900460ff16612384576040517f08c379a000000000000000000000000000000000000000000000000000000000815260040161237b90614d4f565b60405180910390fd5b61238c6125c9565b565b600060019054906101000a900460ff166123dd576040517f08c379a00000000000000000000000000000000000000000000000000000000081526004016123d490614d4f565b60405180910390fd5b6123e561262a565b565b6000609760009054906101000a900473ffffffffffffffffffffffffffffffffffffffff16905081609760006101000a81548173ffffffffffffffffffffffffffffffffffffffff021916908373ffffffffffffffffffffffffffffffffffffffff1602179055508173ffffffffffffffffffffffffffffffffffffffff168173ffffffffffffffffffffffffffffffffffffffff167f8be0079c531659141344cd1fd0a4f28419497f9722a3daafe3b4186f6b6457e060405160405180910390a35050565b6000819050919050565b6000819050919050565b6124ca816125a6565b612509576040517f08c379a000000000000000000000000000000000000000000000000000000000815260040161250090614ccf565b60405180910390fd5b806125367f360894a13ba1a3210667c828492db98dca3e2076cc3735a920a3ca505d382bbc60001b6124ad565b60000160006101000a81548173ffffffffffffffffffffffffffffffffffffffff021916908373ffffffffffffffffffffffffffffffffffffffff16021790555050565b61258383612696565b6000825111806125905750805b156125a15761259f83836126e5565b505b505050565b6000808273ffffffffffffffffffffffffffffffffffffffff163b119050919050565b600060019054906101000a900460ff16612618576040517f08c379a000000000000000000000000000000000000000000000000000000000815260040161260f90614d4f565b60405180910390fd5b612628612623611f29565b6123e7565b565b600060019054906101000a900460ff16612679576040517f08c379a000000000000000000000000000000000000000000000000000000000815260040161267090614d4f565b60405180910390fd5b600060c960006101000a81548160ff021916908315150217905550565b61269f816124c1565b8073ffffffffffffffffffffffffffffffffffffffff167fbc7cd75a20ee27fd9adebab32041f755214dbc6bffa90cc0225b39da2e5c2d3b60405160405180910390a250565b60606126f0836125a6565b61272f576040517f08c379a000000000000000000000000000000000000000000000000000000000815260040161272690614d2f565b60405180910390fd5b6000808473ffffffffffffffffffffffffffffffffffffffff16846040516127579190614563565b600060405180830381855af49150503d8060008114612792576040519150601f19603f3d011682016040523d82523d6000602084013e612797565b606091505b50915091506127bf8282604051806060016040528060278152602001615725602791396127c9565b9250505092915050565b606083156127d957829050612829565b6000835111156127ec5782518084602001fd5b816040517f08c379a00000000000000000000000000000000000000000000000000000000081526004016128209190614b8d565b60405180910390fd5b9392505050565b60405180610140016040528060008152602001606081526020016000815260200160008152602001600081526020016060815260200160608152602001600081526020016000151581526020016000151581525090565b6040518060400160405280600081526020016128a161294b565b81525090565b60405180610220016040528060008152602001600073ffffffffffffffffffffffffffffffffffffffff168152602001600081526020016060815260200160008152602001600081526020016000815260200160008152602001606081526020016000151581526020016000151581526020016000151581526020016000151581526020016000151581526020016000815260200160008152602001606081525090565b6040518061028001604052806014905b612963612979565b81526020019060019003908161295b5790505090565b60405180606001604052806000815260200160008152602001606081525090565b60006129ad6129a884614e3e565b614e19565b905080838252602082019050828560208602820111156129cc57600080fd5b60005b85811015612a1657815167ffffffffffffffff8111156129ee57600080fd5b8086016129fb8982612e5e565b855260208501945060208401935050506001810190506129cf565b5050509392505050565b6000612a33612a2e84614e6a565b614e19565b90508082856020860282011115612a4957600080fd5b60005b85811015612a9357815167ffffffffffffffff811115612a6b57600080fd5b808601612a7889826130c2565b85526020850194506020840193505050600181019050612a4c565b5050509392505050565b6000612ab0612aab84614e90565b614e19565b90508083825260208201905082856020860282011115612acf57600080fd5b60005b85811015612b1957815167ffffffffffffffff811115612af157600080fd5b808601612afe89826132d8565b85526020850194506020840193505050600181019050612ad2565b5050509392505050565b6000612b36612b3184614ebc565b614e19565b90508083825260208201905082856020860282011115612b5557600080fd5b60005b85811015612b855781612b6b8882613423565b845260208401935060208301925050600181019050612b58565b5050509392505050565b6000612ba2612b9d84614ee8565b614e19565b905082815260208101848484011115612bba57600080fd5b612bc58482856151cd565b509392505050565b6000612be0612bdb84614f19565b614e19565b905082815260208101848484011115612bf857600080fd5b612c038482856151cd565b509392505050565b6000612c1e612c1984614f19565b614e19565b905082815260208101848484011115612c3657600080fd5b612c418482856151dc565b509392505050565b600081359050612c5881615691565b92915050565b600081519050612c6d81615691565b92915050565b600082601f830112612c8457600080fd5b8151612c9484826020860161299a565b91505092915050565b600082601f830112612cae57600080fd5b6014612cbb848285612a20565b91505092915050565b600082601f830112612cd557600080fd5b8151612ce5848260208601612a9d565b91505092915050565b600082601f830112612cff57600080fd5b8151612d0f848260208601612b23565b91505092915050565b600081359050612d27816156a8565b92915050565b600081519050612d3c816156a8565b92915050565b600081519050612d51816156bf565b92915050565b600082601f830112612d6857600080fd5b8135612d78848260208601612b8f565b91505092915050565b600081519050612d90816156d6565b92915050565b600081519050612da5816156e6565b92915050565b600081359050612dba816156f6565b92915050565b60008083601f840112612dd257600080fd5b8235905067ffffffffffffffff811115612deb57600080fd5b602083019150836001820283011115612e0357600080fd5b9250929050565b600082601f830112612e1b57600080fd5b8135612e2b848260208601612bcd565b91505092915050565b600082601f830112612e4557600080fd5b8151612e55848260208601612c0b565b91505092915050565b600060608284031215612e7057600080fd5b612e7a6060614e19565b90506000612e8a84828501613423565b600083015250602082015167ffffffffffffffff811115612eaa57600080fd5b612eb684828501612e34565b602083015250604082015167ffffffffffffffff811115612ed657600080fd5b612ee284828501612e34565b60408301525092915050565b60006102208284031215612f0157600080fd5b612f0c610220614e19565b90506000612f1c84828501613423565b6000830152506020612f3084828501612c5e565b6020830152506040612f4484828501613423565b604083015250606082015167ffffffffffffffff811115612f6457600080fd5b612f7084828501612e34565b6060830152506080612f8484828501613423565b60808301525060a0612f9884828501613423565b60a08301525060c0612fac84828501613423565b60c08301525060e0612fc084828501613423565b60e08301525061010082015167ffffffffffffffff811115612fe157600080fd5b612fed84828501612e34565b6101008301525061012061300384828501612d2d565b6101208301525061014061301984828501612d2d565b6101408301525061016061302f84828501612d2d565b6101608301525061018061304584828501612d2d565b610180830152506101a061305b84828501612d2d565b6101a0830152506101c061307184828501613423565b6101c0830152506101e061308784828501613423565b6101e08301525061020082015167ffffffffffffffff8111156130a957600080fd5b6130b584828501612c73565b6102008301525092915050565b6000606082840312156130d457600080fd5b6130de6060614e19565b905060006130ee84828501613423565b600083015250602061310284828501613423565b602083015250604082015167ffffffffffffffff81111561312257600080fd5b61312e84828501612e34565b60408301525092915050565b60006040828403121561314c57600080fd5b6131566040614e19565b9050600061316684828501613423565b600083015250602082015167ffffffffffffffff81111561318657600080fd5b61319284828501612c9d565b60208301525092915050565b600061014082840312156131b157600080fd5b6131bc610140614e19565b905060006131cc84828501613423565b600083015250602082015167ffffffffffffffff8111156131ec57600080fd5b6131f884828501612e34565b602083015250604061320c84828501613423565b604083015250606061322084828501613423565b606083015250608061323484828501613423565b60808301525060a082015167ffffffffffffffff81111561325457600080fd5b61326084828501612e34565b60a08301525060c082015167ffffffffffffffff81111561328057600080fd5b61328c84828501612cee565b60c08301525060e06132a084828501613423565b60e0830152506101006132b584828501612d2d565b610100830152506101206132cb84828501612d2d565b6101208301525092915050565b600061018082840312156132eb57600080fd5b6132f6610180614e19565b9050600061330684828501613423565b600083015250602061331a84828501612c5e565b602083015250604061332e84828501612d2d565b604083015250606061334284828501613423565b606083015250608061335684828501613423565b60808301525060a061336a84828501613423565b60a08301525060c082015167ffffffffffffffff81111561338a57600080fd5b61339684828501612e34565b60c08301525060e06133aa84828501612d42565b60e0830152506101006133bf84828501612d81565b610100830152506101206133d584828501612d96565b610120830152506101406133eb84828501612d2d565b6101408301525061016061340184828501613423565b6101608301525092915050565b60008135905061341d8161570d565b92915050565b6000815190506134328161570d565b92915050565b60006020828403121561344a57600080fd5b600061345884828501612c49565b91505092915050565b60006020828403121561347357600080fd5b600061348184828501612c5e565b91505092915050565b6000806040838503121561349d57600080fd5b60006134ab85828601612c49565b92505060206134bc85828601612c49565b9150509250929050565b600080604083850312156134d957600080fd5b60006134e785828601612c49565b925050602083013567ffffffffffffffff81111561350457600080fd5b61351085828601612d57565b9150509250929050565b6000806040838503121561352d57600080fd5b600061353b85828601612c49565b925050602083013567ffffffffffffffff81111561355857600080fd5b61356485828601612e0a565b9150509250929050565b6000806040838503121561358157600080fd5b600061358f85828601612c49565b92505060206135a08582860161340e565b9150509250929050565b6000806000606084860312156135bf57600080fd5b60006135cd86828701612c49565b93505060206135de8682870161340e565b92505060406135ef8682870161340e565b9150509250925092565b60008060008060006080868803121561361157600080fd5b600061361f88828901612c49565b95505060206136308882890161340e565b94505060406136418882890161340e565b935050606086013567ffffffffffffffff81111561365e57600080fd5b61366a88828901612dc0565b92509250509295509295909350565b60006020828403121561368b57600080fd5b600082015167ffffffffffffffff8111156136a557600080fd5b6136b184828501612cc4565b91505092915050565b6000602082840312156136cc57600080fd5b60006136da84828501612d2d565b91505092915050565b6000602082840312156136f557600080fd5b600061370384828501612d42565b91505092915050565b6000806040838503121561371f57600080fd5b600061372d85828601612dab565b925050602061373e85828601612dab565b9150509250929050565b6000806000806080858703121561375e57600080fd5b600061376c87828801612dab565b945050602061377d87828801612dab565b935050604061378e8782880161340e565b925050606061379f8782880161340e565b91505092959194509250565b6000602082840312156137bd57600080fd5b600082013567ffffffffffffffff8111156137d757600080fd5b6137e384828501612e0a565b91505092915050565b6000602082840312156137fe57600080fd5b600082015167ffffffffffffffff81111561381857600080fd5b61382484828501612eee565b91505092915050565b60006020828403121561383f57600080fd5b600082015167ffffffffffffffff81111561385957600080fd5b6138658482850161313a565b91505092915050565b60006020828403121561388057600080fd5b600082015167ffffffffffffffff81111561389a57600080fd5b6138a68482850161319e565b91505092915050565b6000602082840312156138c157600080fd5b60006138cf8482850161340e565b91505092915050565b6000602082840312156138ea57600080fd5b60006138f884828501613423565b91505092915050565b6000806040838503121561391457600080fd5b60006139228582860161340e565b925050602061393385828601612d18565b9150509250929050565b60008060006040848603121561395257600080fd5b60006139608682870161340e565b935050602084013567ffffffffffffffff81111561397d57600080fd5b61398986828701612dc0565b92509250509250925092565b600080600080608085870312156139ab57600080fd5b60006139b98782880161340e565b945050602085013567ffffffffffffffff8111156139d657600080fd5b6139e287828801612e0a565b93505060406139f38782880161340e565b9250506060613a0487828801612d18565b91505092959194509250565b6000613a1c8383613a7c565b60208301905092915050565b6000613a3483836140eb565b905092915050565b6000613a4883836142bd565b905092915050565b6000613a5c8383614432565b905092915050565b6000613a708383614536565b60208301905092915050565b613a85816150c0565b82525050565b613a94816150c0565b82525050565b613aa3816150c0565b82525050565b6000613ab482614f94565b613abe8185615022565b9350613ac983614f4a565b8060005b83811015613afa578151613ae18882613a10565b9750613aec83614fe1565b925050600181019050613acd565b5085935050505092915050565b8082525050565b6000613b1982614f9f565b613b238185615033565b935083602082028501613b3585614f5a565b8060005b85811015613b715784840389528151613b528582613a28565b9450613b5d83614fee565b925060208a01995050600181019050613b39565b50829750879550505050505092915050565b6000613b8e82614faa565b613b988185615044565b935083602082028501613baa85614f6a565b8060005b85811015613be65784840389528151613bc78582613a3c565b9450613bd283614ffb565b925060208a01995050600181019050613bae565b50829750879550505050505092915050565b6000613c0382614fb5565b613c0d818561504f565b935083602082028501613c1f85614f74565b8060005b85811015613c5b5784840389528151613c3c8582613a50565b9450613c4783615008565b925060208a01995050600181019050613c23565b50829750879550505050505092915050565b6000613c7882614fc0565b613c828185615060565b9350613c8d83614f84565b8060005b83811015613cbe578151613ca58882613a64565b9750613cb083615015565b925050600181019050613c91565b5085935050505092915050565b6000613cd682614fc0565b613ce08185615071565b9350613ceb83614f84565b8060005b83811015613d1c578151613d038882613a64565b9750613d0e83615015565b925050600181019050613cef565b5085935050505092915050565b8082525050565b613d39816150d2565b82525050565b613d48816150d2565b82525050565b613d57816150d2565b82525050565b613d66816150de565b82525050565b613d75816150de565b82525050565b6000613d8682614fcb565b613d908185615082565b9350613da08185602086016151dc565b80840191505092915050565b613db58161514f565b82525050565b613dc481615173565b82525050565b613dd381615197565b82525050565b613de2816151a9565b82525050565b613df18161510e565b82525050565b8082525050565b8082525050565b8082525050565b8082525050565b8082525050565b613e23816151bb565b82525050565b6000613e3583856150af565b9350613e428385846151cd565b613e4b8361529e565b840190509392505050565b6000613e6182614fd6565b613e6b818561508d565b9350613e7b8185602086016151dc565b613e848161529e565b840191505092915050565b6000613e9a82614fd6565b613ea4818561509e565b9350613eb48185602086016151dc565b613ebd8161529e565b840191505092915050565b6000613ed382614fd6565b613edd81856150af565b9350613eed8185602086016151dc565b613ef68161529e565b840191505092915050565b6000613f0e60268361509e565b9150613f19826152af565b604082019050919050565b6000613f3160108361509e565b9150613f3c826152fe565b602082019050919050565b6000613f54602c8361509e565b9150613f5f82615327565b604082019050919050565b6000613f77602c8361509e565b9150613f8282615376565b604082019050919050565b6000613f9a60128361509e565b9150613fa5826153c5565b602082019050919050565b6000613fbd60388361509e565b9150613fc8826153ee565b604082019050919050565b6000613fe060298361509e565b9150613feb8261543d565b604082019050919050565b6000614003602e8361509e565b915061400e8261548c565b604082019050919050565b6000614026602e8361509e565b9150614031826154db565b604082019050919050565b6000614049602d8361509e565b91506140548261552a565b604082019050919050565b600061406c60208361509e565b915061407782615579565b602082019050919050565b600061408f60118361509e565b915061409a826155a2565b602082019050919050565b60006140b260268361509e565b91506140bd826155cb565b604082019050919050565b60006140d5602b8361509e565b91506140e08261561a565b604082019050919050565b60006060830160008301516141036000860182614536565b506020830151848203602086015261411b8282613e56565b915050604083015184820360408601526141358282613e56565b9150508091505092915050565b60006102208301600083015161415b6000860182614536565b50602083015161416e6020860182613a7c565b5060408301516141816040860182614536565b50606083015184820360608601526141998282613e56565b91505060808301516141ae6080860182614536565b5060a08301516141c160a0860182614536565b5060c08301516141d460c0860182614536565b5060e08301516141e760e0860182614536565b506101008301518482036101008601526142018282613e56565b915050610120830151614218610120860182613d30565b5061014083015161422d610140860182613d30565b50610160830151614242610160860182613d30565b50610180830151614257610180860182613d30565b506101a083015161426c6101a0860182613d30565b506101c08301516142816101c0860182614536565b506101e08301516142966101e0860182614536565b506102008301518482036102008601526142b08282613b0e565b9150508091505092915050565b60006060830160008301516142d56000860182614536565b5060208301516142e86020860182614536565b50604083015184820360408601526143008282613e56565b9150508091505092915050565b60006040830160008301516143256000860182614536565b506020830151848203602086015261433d8282613b83565b9150508091505092915050565b6000610140830160008301516143636000860182614536565b506020830151848203602086015261437b8282613e56565b91505060408301516143906040860182614536565b5060608301516143a36060860182614536565b5060808301516143b66080860182614536565b5060a083015184820360a08601526143ce8282613e56565b91505060c083015184820360c08601526143e88282613c6d565b91505060e08301516143fd60e0860182614536565b50610100830151614412610100860182613d30565b50610120830151614427610120860182613d30565b508091505092915050565b60006101808301600083015161444b6000860182614536565b50602083015161445e6020860182613a7c565b5060408301516144716040860182613d30565b5060608301516144846060860182614536565b5060808301516144976080860182614536565b5060a08301516144aa60a0860182614536565b5060c083015184820360c08601526144c28282613e56565b91505060e08301516144d760e0860182613d5d565b506101008301516144ec610100860182613dca565b50610120830151614501610120860182613dd9565b50610140830151614516610140860182613d30565b5061016083015161452b610160860182614536565b508091505092915050565b61453f81615138565b82525050565b61454e81615138565b82525050565b61455d81615138565b82525050565b600061456f8284613d7b565b915081905092915050565b600060208201905061458f6000830184613a8b565b92915050565b60006040820190506145aa6000830185613a9a565b6145b76020830184613df7565b9392505050565b60006060820190506145d36000830186613a9a565b6145e06020830185613df7565b81810360408301526145f28184613ec8565b9050949350505050565b60006040820190506146116000830185613a8b565b61461e6020830184614545565b9392505050565b600060c08201905061463a6000830189613a9a565b6146476020830188614554565b6146546040830187613df7565b6146616060830186613e13565b61466e6080830185613a9a565b61467b60a0830184613a9a565b979650505050505050565b600060608201905061469b6000830186613a8b565b6146a86020830185614545565b81810360408301526146ba8184613e8f565b9050949350505050565b600060a0820190506146d96000830188613a8b565b6146e66020830187614545565b81810360408301526146f88186613e8f565b90506147076060830185614545565b6147146080830184613d3f565b9695505050505050565b600060208201905081810360008301526147388184613aa9565b905092915050565b600061010082019050614756600083018b613b07565b614763602083018a613dfe565b6147706040830189613df7565b61477d6060830188613e13565b61478a6080830187613d29565b61479760a0830186613a9a565b6147a460c0830185614554565b6147b160e0830184614554565b9998505050505050505050565b600060208201905081810360008301526147d88184613bf8565b905092915050565b600060208201905081810360008301526147fa8184613ccb565b905092915050565b60006020820190506148176000830184613d3f565b92915050565b60006020820190506148326000830184613d6c565b92915050565b600060c08201905061484d6000830189613dac565b61485a6020830188613dbb565b6148676040830187613df7565b6148746060830186613e13565b6148816080830185613a9a565b81810360a08301526148938184613ec8565b9050979650505050505050565b60006060820190506148b56000830186613dac565b6148c26020830185613df7565b6148cf6040830184613a9a565b949350505050565b6000610140820190506148ed600083018d613dac565b6148fa602083018c613df7565b614907604083018b613a9a565b614914606083018a613a9a565b6149216080830189613b07565b61492e60a0830188613dfe565b61493b60c0830187614554565b81810360e083015261494d8186613ec8565b905061495d610100830185614554565b61496b610120830184613d4e565b9b9a5050505050505050505050565b600060c08201905061498f6000830189613dbb565b61499c6020830188613df7565b6149a96040830187613e13565b6149b66060830186613a9a565b6149c36080830185614554565b6149d060a0830184614554565b979650505050505050565b600060e0820190506149f0600083018b613dbb565b6149fd602083018a613df7565b614a0a6040830189613e13565b614a176060830188613a9a565b614a246080830187614554565b614a3160a0830186614554565b81810360c0830152614a44818486613e29565b90509998505050505050505050565b600060a082019050614a686000830189613dbb565b614a756020830188613e13565b614a826040830187613a9a565b614a8f6060830186614554565b8181036080830152614aa2818486613e29565b9050979650505050505050565b6000608082019050614ac46000830187613de8565b614ad16020830186613de8565b614ade6040830185613e0c565b614aeb6060830184613e05565b95945050505050565b600061010082019050614b0a600083018b613e05565b614b17602083018a613e13565b614b246040830189613e0c565b614b316060830188613d29565b614b3e6080830187614554565b614b4b60a0830186614554565b614b5860c0830185613de8565b614b6560e0830184613de8565b9998505050505050505050565b6000602082019050614b876000830184613e1a565b92915050565b60006020820190508181036000830152614ba78184613e8f565b905092915050565b60006020820190508181036000830152614bc881613f01565b9050919050565b60006020820190508181036000830152614be881613f24565b9050919050565b60006020820190508181036000830152614c0881613f47565b9050919050565b60006020820190508181036000830152614c2881613f6a565b9050919050565b60006020820190508181036000830152614c4881613f8d565b9050919050565b60006020820190508181036000830152614c6881613fb0565b9050919050565b60006020820190508181036000830152614c8881613fd3565b9050919050565b60006020820190508181036000830152614ca881613ff6565b9050919050565b60006020820190508181036000830152614cc881614019565b9050919050565b60006020820190508181036000830152614ce88161403c565b9050919050565b60006020820190508181036000830152614d088161405f565b9050919050565b60006020820190508181036000830152614d2881614082565b9050919050565b60006020820190508181036000830152614d48816140a5565b9050919050565b60006020820190508181036000830152614d68816140c8565b9050919050565b60006020820190508181036000830152614d898184614142565b905092915050565b60006020820190508181036000830152614dab818461430d565b905092915050565b60006020820190508181036000830152614dcd818461434a565b905092915050565b6000602082019050614dea6000830184614545565b92915050565b6000604082019050614e056000830185614554565b614e126020830184613e13565b9392505050565b6000614e23614e34565b9050614e2f828261520f565b919050565b6000604051905090565b600067ffffffffffffffff821115614e5957614e5861526f565b5b602082029050602081019050919050565b600067ffffffffffffffff821115614e8557614e8461526f565b5b602082029050919050565b600067ffffffffffffffff821115614eab57614eaa61526f565b5b602082029050602081019050919050565b600067ffffffffffffffff821115614ed757614ed661526f565b5b602082029050602081019050919050565b600067ffffffffffffffff821115614f0357614f0261526f565b5b614f0c8261529e565b9050602081019050919050565b600067ffffffffffffffff821115614f3457614f3361526f565b5b614f3d8261529e565b9050602081019050919050565b6000819050602082019050919050565b6000819050602082019050919050565b6000819050919050565b6000819050602082019050919050565b6000819050602082019050919050565b600081519050919050565b600081519050919050565b600060149050919050565b600081519050919050565b600081519050919050565b600081519050919050565b600081519050919050565b6000602082019050919050565b6000602082019050919050565b6000602082019050919050565b6000602082019050919050565b6000602082019050919050565b600082825260208201905092915050565b600082825260208201905092915050565b600081905092915050565b600082825260208201905092915050565b600082825260208201905092915050565b600082825260208201905092915050565b600081905092915050565b600082825260208201905092915050565b600082825260208201905092915050565b600082825260208201905092915050565b60006150cb82615118565b9050919050565b60008115159050919050565b6000819050919050565b60008190506150f682615669565b919050565b60008190506151098261567d565b919050565b6000819050919050565b600073ffffffffffffffffffffffffffffffffffffffff82169050919050565b6000819050919050565b600060ff82169050919050565b600061515a82615161565b9050919050565b600061516c82615118565b9050919050565b600061517e82615185565b9050919050565b600061519082615118565b9050919050565b60006151a2826150e8565b9050919050565b60006151b4826150fb565b9050919050565b60006151c682615142565b9050919050565b82818337600083830152505050565b60005b838110156151fa5780820151818401526020810190506151df565b83811115615209576000848401525b50505050565b6152188261529e565b810181811067ffffffffffffffff821117156152375761523661526f565b5b80604052505050565b7f4e487b7100000000000000000000000000000000000000000000000000000000600052602160045260246000fd5b7f4e487b7100000000000000000000000000000000000000000000000000000000600052604160045260246000fd5b6000601f19601f8301169050919050565b7f4f776e61626c653a206e6577206f776e657220697320746865207a65726f206160008201527f6464726573730000000000000000000000000000000000000000000000000000602082015250565b7f4e6f74206f776e6572206f66204e667400000000000000000000000000000000600082015250565b7f46756e6374696f6e206d7573742062652063616c6c6564207468726f7567682060008201527f64656c656761746563616c6c0000000000000000000000000000000000000000602082015250565b7f46756e6374696f6e206d7573742062652063616c6c6564207468726f7567682060008201527f6163746976652070726f78790000000000000000000000000000000000000000602082015250565b7f5769746864726177616c206661696c6564210000000000000000000000000000600082015250565b7f555550535570677261646561626c653a206d757374206e6f742062652063616c60008201527f6c6564207468726f7567682064656c656761746563616c6c0000000000000000602082015250565b7f45524331393637557067726164653a20756e737570706f727465642070726f7860008201527f6961626c65555549440000000000000000000000000000000000000000000000602082015250565b7f496e697469616c697a61626c653a20636f6e747261637420697320616c72656160008201527f647920696e697469616c697a6564000000000000000000000000000000000000602082015250565b7f45524331393637557067726164653a206e657720696d706c656d656e7461746960008201527f6f6e206973206e6f742055555053000000000000000000000000000000000000602082015250565b7f455243313936373a206e657720696d706c656d656e746174696f6e206973206e60008201527f6f74206120636f6e747261637400000000000000000000000000000000000000602082015250565b7f4f776e61626c653a2063616c6c6572206973206e6f7420746865206f776e6572600082015250565b7f416464722063616e6e6f7420626520302e000000000000000000000000000000600082015250565b7f416464726573733a2064656c65676174652063616c6c20746f206e6f6e2d636f60008201527f6e74726163740000000000000000000000000000000000000000000000000000602082015250565b7f496e697469616c697a61626c653a20636f6e7472616374206973206e6f74206960008201527f6e697469616c697a696e67000000000000000000000000000000000000000000602082015250565b6003811061567a57615679615240565b5b50565b6003811061568e5761568d615240565b5b50565b61569a816150c0565b81146156a557600080fd5b50565b6156b1816150d2565b81146156bc57600080fd5b50565b6156c8816150de565b81146156d357600080fd5b50565b600381106156e357600080fd5b50565b600381106156f357600080fd5b50565b6156ff8161510e565b811461570a57600080fd5b50565b61571681615138565b811461572157600080fd5b5056fe416464726573733a206c6f772d6c6576656c2064656c65676174652063616c6c206661696c6564a26469706673582212206c5d2de7eeba17c1a900e29960f1fd222efc7826b9788c6109536189069361e264736f6c63430008040033",
  "linkReferences": {
    "contracts/lib/SaeConvert.sol": {
      "SaeConvert": [
        {
          "length": 20,
          "start": 2114
        },
        {
          "length": 20,
          "start": 3458
        },
        {
          "length": 20,
          "start": 5671
        }
      ]
    },
    "contracts/lib/SaeStakingFunctions.sol": {
      "SaeStakingFunctions": [
        {
          "length": 20,
          "start": 2801
        },
        {
          "length": 20,
          "start": 2931
        },
        {
          "length": 20,
          "start": 4522
        },
        {
          "length": 20,
          "start": 6275
        },
        {
          "length": 20,
          "start": 6977
        },
        {
          "length": 20,
          "start": 7947
        }
      ]
    },
    "contracts/lib/SaeViews.sol": {
      "SaeViews": [
        {
          "length": 20,
          "start": 3180
        },
        {
          "length": 20,
          "start": 4054
        },
        {
          "length": 20,
          "start": 6118
        },
        {
          "length": 20,
          "start": 6486
        },
        {
          "length": 20,
          "start": 7542
        }
      ]
    }
  },
  "deployedLinkReferences": {
    "contracts/lib/SaeConvert.sol": {
      "SaeConvert": [
        {
          "length": 20,
          "start": 1984
        },
        {
          "length": 20,
          "start": 3328
        },
        {
          "length": 20,
          "start": 5541
        }
      ]
    },
    "contracts/lib/SaeStakingFunctions.sol": {
      "SaeStakingFunctions": [
        {
          "length": 20,
          "start": 2671
        },
        {
          "length": 20,
          "start": 2801
        },
        {
          "length": 20,
          "start": 4392
        },
        {
          "length": 20,
          "start": 6145
        },
        {
          "length": 20,
          "start": 6847
        },
        {
          "length": 20,
          "start": 7817
        }
      ]
    },
    "contracts/lib/SaeViews.sol": {
      "SaeViews": [
        {
          "length": 20,
          "start": 3050
        },
        {
          "length": 20,
          "start": 3924
        },
        {
          "length": 20,
          "start": 5988
        },
        {
          "length": 20,
          "start": 6356
        },
        {
          "length": 20,
          "start": 7412
        }
      ]
    }
  }
}