{
  "_format": "hh-sol-artifact-1",
  "contractName": "SaeNft",
  "sourceName": "contracts/SaeNft.sol",
  "abi": [
    {
      "inputs": [],
      "stateMutability": "nonpayable",
      "type": "constructor"
    },
    {
      "anonymous": false,
      "inputs": [
        {
          "indexed": true,
          "internalType": "address",
          "name": "owner",
          "type": "address"
        },
        {
          "indexed": true,
          "internalType": "address",
          "name": "approved",
          "type": "address"
        },
        {
          "indexed": true,
          "internalType": "uint256",
          "name": "tokenId",
          "type": "uint256"
        }
      ],
      "name": "Approval",
      "type": "event"
    },
    {
      "anonymous": false,
      "inputs": [
        {
          "indexed": true,
          "internalType": "address",
          "name": "owner",
          "type": "address"
        },
        {
          "indexed": true,
          "internalType": "address",
          "name": "operator",
          "type": "address"
        },
        {
          "indexed": false,
          "internalType": "bool",
          "name": "approved",
          "type": "bool"
        }
      ],
      "name": "ApprovalForAll",
      "type": "event"
    },
    {
      "anonymous": false,
      "inputs": [
        {
          "indexed": true,
          "internalType": "address",
          "name": "previousOwner",
          "type": "address"
        },
        {
          "indexed": true,
          "internalType": "address",
          "name": "newOwner",
          "type": "address"
        }
      ],
      "name": "OwnershipTransferred",
      "type": "event"
    },
    {
      "anonymous": false,
      "inputs": [
        {
          "indexed": true,
          "internalType": "address",
          "name": "from",
          "type": "address"
        },
        {
          "indexed": true,
          "internalType": "address",
          "name": "to",
          "type": "address"
        },
        {
          "indexed": true,
          "internalType": "uint256",
          "name": "tokenId",
          "type": "uint256"
        }
      ],
      "name": "Transfer",
      "type": "event"
    },
    {
      "inputs": [
        {
          "internalType": "address",
          "name": "to",
          "type": "address"
        },
        {
          "internalType": "uint256",
          "name": "tokenId",
          "type": "uint256"
        }
      ],
      "name": "approve",
      "outputs": [],
      "stateMutability": "nonpayable",
      "type": "function"
    },
    {
      "inputs": [
        {
          "internalType": "address",
          "name": "owner",
          "type": "address"
        }
      ],
      "name": "balanceOf",
      "outputs": [
        {
          "internalType": "uint256",
          "name": "",
          "type": "uint256"
        }
      ],
      "stateMutability": "view",
      "type": "function"
    },
    {
      "inputs": [
        {
          "internalType": "uint256",
          "name": "tokenId",
          "type": "uint256"
        }
      ],
      "name": "burn",
      "outputs": [],
      "stateMutability": "nonpayable",
      "type": "function"
    },
    {
      "inputs": [
        {
          "internalType": "uint256",
          "name": "tokenId",
          "type": "uint256"
        }
      ],
      "name": "exists",
      "outputs": [
        {
          "internalType": "bool",
          "name": "",
          "type": "bool"
        }
      ],
      "stateMutability": "view",
      "type": "function"
    },
    {
      "inputs": [
        {
          "internalType": "uint256",
          "name": "tokenId",
          "type": "uint256"
        }
      ],
      "name": "getApproved",
      "outputs": [
        {
          "internalType": "address",
          "name": "",
          "type": "address"
        }
      ],
      "stateMutability": "view",
      "type": "function"
    },
    {
      "inputs": [
        {
          "internalType": "address",
          "name": "owner",
          "type": "address"
        },
        {
          "internalType": "uint256",
          "name": "index",
          "type": "uint256"
        }
      ],
      "name": "getTokenOwnerByIndex",
      "outputs": [
        {
          "internalType": "uint256",
          "name": "",
          "type": "uint256"
        }
      ],
      "stateMutability": "view",
      "type": "function"
    },
    {
      "inputs": [
        {
          "internalType": "address",
          "name": "owner",
          "type": "address"
        },
        {
          "internalType": "address",
          "name": "operator",
          "type": "address"
        }
      ],
      "name": "isApprovedForAll",
      "outputs": [
        {
          "internalType": "bool",
          "name": "",
          "type": "bool"
        }
      ],
      "stateMutability": "view",
      "type": "function"
    },
    {
      "inputs": [],
      "name": "name",
      "outputs": [
        {
          "internalType": "string",
          "name": "",
          "type": "string"
        }
      ],
      "stateMutability": "view",
      "type": "function"
    },
    {
      "inputs": [],
      "name": "nextTokenId",
      "outputs": [
        {
          "internalType": "uint256",
          "name": "",
          "type": "uint256"
        }
      ],
      "stateMutability": "view",
      "type": "function"
    },
    {
      "inputs": [
        {
          "internalType": "address",
          "name": "owner",
          "type": "address"
        }
      ],
      "name": "numberNftsOwned",
      "outputs": [
        {
          "internalType": "uint256",
          "name": "",
          "type": "uint256"
        }
      ],
      "stateMutability": "view",
      "type": "function"
    },
    {
      "inputs": [],
      "name": "owner",
      "outputs": [
        {
          "internalType": "address",
          "name": "",
          "type": "address"
        }
      ],
      "stateMutability": "view",
      "type": "function"
    },
    {
      "inputs": [
        {
          "internalType": "uint256",
          "name": "tokenId",
          "type": "uint256"
        }
      ],
      "name": "ownerOf",
      "outputs": [
        {
          "internalType": "address",
          "name": "",
          "type": "address"
        }
      ],
      "stateMutability": "view",
      "type": "function"
    },
    {
      "inputs": [],
      "name": "renounceOwnership",
      "outputs": [],
      "stateMutability": "nonpayable",
      "type": "function"
    },
    {
      "inputs": [
        {
          "internalType": "address",
          "name": "to",
          "type": "address"
        },
        {
          "internalType": "string",
          "name": "_tokenURI",
          "type": "string"
        }
      ],
      "name": "safeMint",
      "outputs": [],
      "stateMutability": "nonpayable",
      "type": "function"
    },
    {
      "inputs": [
        {
          "internalType": "address",
          "name": "from",
          "type": "address"
        },
        {
          "internalType": "address",
          "name": "to",
          "type": "address"
        },
        {
          "internalType": "uint256",
          "name": "tokenId",
          "type": "uint256"
        }
      ],
      "name": "safeTransferFrom",
      "outputs": [],
      "stateMutability": "nonpayable",
      "type": "function"
    },
    {
      "inputs": [
        {
          "internalType": "address",
          "name": "from",
          "type": "address"
        },
        {
          "internalType": "address",
          "name": "to",
          "type": "address"
        },
        {
          "internalType": "uint256",
          "name": "tokenId",
          "type": "uint256"
        },
        {
          "internalType": "bytes",
          "name": "_data",
          "type": "bytes"
        }
      ],
      "name": "safeTransferFrom",
      "outputs": [],
      "stateMutability": "nonpayable",
      "type": "function"
    },
    {
      "inputs": [
        {
          "internalType": "address",
          "name": "operator",
          "type": "address"
        },
        {
          "internalType": "bool",
          "name": "approved",
          "type": "bool"
        }
      ],
      "name": "setApprovalForAll",
      "outputs": [],
      "stateMutability": "nonpayable",
      "type": "function"
    },
    {
      "inputs": [
        {
          "internalType": "address",
          "name": "addr",
          "type": "address"
        }
      ],
      "name": "setProxy",
      "outputs": [],
      "stateMutability": "nonpayable",
      "type": "function"
    },
    {
      "inputs": [
        {
          "internalType": "uint256",
          "name": "tokenId",
          "type": "uint256"
        },
        {
          "internalType": "string",
          "name": "_tokenURI",
          "type": "string"
        }
      ],
      "name": "setTokenURI",
      "outputs": [],
      "stateMutability": "nonpayable",
      "type": "function"
    },
    {
      "inputs": [
        {
          "internalType": "bytes4",
          "name": "interfaceId",
          "type": "bytes4"
        }
      ],
      "name": "supportsInterface",
      "outputs": [
        {
          "internalType": "bool",
          "name": "",
          "type": "bool"
        }
      ],
      "stateMutability": "view",
      "type": "function"
    },
    {
      "inputs": [],
      "name": "symbol",
      "outputs": [
        {
          "internalType": "string",
          "name": "",
          "type": "string"
        }
      ],
      "stateMutability": "view",
      "type": "function"
    },
    {
      "inputs": [
        {
          "internalType": "uint256",
          "name": "index",
          "type": "uint256"
        }
      ],
      "name": "tokenByIndex",
      "outputs": [
        {
          "internalType": "uint256",
          "name": "",
          "type": "uint256"
        }
      ],
      "stateMutability": "view",
      "type": "function"
    },
    {
      "inputs": [
        {
          "internalType": "address",
          "name": "owner",
          "type": "address"
        },
        {
          "internalType": "uint256",
          "name": "index",
          "type": "uint256"
        }
      ],
      "name": "tokenOfOwnerByIndex",
      "outputs": [
        {
          "internalType": "uint256",
          "name": "",
          "type": "uint256"
        }
      ],
      "stateMutability": "view",
      "type": "function"
    },
    {
      "inputs": [
        {
          "internalType": "uint256",
          "name": "tokenId",
          "type": "uint256"
        }
      ],
      "name": "tokenURI",
      "outputs": [
        {
          "internalType": "string",
          "name": "",
          "type": "string"
        }
      ],
      "stateMutability": "view",
      "type": "function"
    },
    {
      "inputs": [],
      "name": "totalSupply",
      "outputs": [
        {
          "internalType": "uint256",
          "name": "",
          "type": "uint256"
        }
      ],
      "stateMutability": "view",
      "type": "function"
    },
    {
      "inputs": [
        {
          "internalType": "address",
          "name": "from",
          "type": "address"
        },
        {
          "internalType": "address",
          "name": "to",
          "type": "address"
        },
        {
          "internalType": "uint256",
          "name": "tokenId",
          "type": "uint256"
        }
      ],
      "name": "transferFrom",
      "outputs": [],
      "stateMutability": "nonpayable",
      "type": "function"
    },
    {
      "inputs": [
        {
          "internalType": "address",
          "name": "newOwner",
          "type": "address"
        }
      ],
      "name": "transferOwnership",
      "outputs": [],
      "stateMutability": "nonpayable",
      "type": "function"
    }
  ],
  "bytecode": "0x60806040526000600b553480156200001657600080fd5b506040518060400160405280600681526020017f5361654e667400000000000000000000000000000000000000000000000000008152506040518060400160405280600681526020017f4441474e4654000000000000000000000000000000000000000000000000000081525081600090805190602001906200009b929190620001ab565b508060019080519060200190620000b4929190620001ab565b505050620000d7620000cb620000dd60201b60201c565b620000e560201b60201c565b620002c0565b600033905090565b6000600a60009054906101000a900473ffffffffffffffffffffffffffffffffffffffff16905081600a60006101000a81548173ffffffffffffffffffffffffffffffffffffffff021916908373ffffffffffffffffffffffffffffffffffffffff1602179055508173ffffffffffffffffffffffffffffffffffffffff168173ffffffffffffffffffffffffffffffffffffffff167f8be0079c531659141344cd1fd0a4f28419497f9722a3daafe3b4186f6b6457e060405160405180910390a35050565b828054620001b9906200025b565b90600052602060002090601f016020900481019282620001dd576000855562000229565b82601f10620001f857805160ff191683800117855562000229565b8280016001018555821562000229579182015b82811115620002285782518255916020019190600101906200020b565b5b5090506200023891906200023c565b5090565b5b80821115620002575760008160009055506001016200023d565b5090565b600060028204905060018216806200027457607f821691505b602082108114156200028b576200028a62000291565b5b50919050565b7f4e487b7100000000000000000000000000000000000000000000000000000000600052602260045260246000fd5b613e1580620002d06000396000f3fe608060405234801561001057600080fd5b50600436106101a95760003560e01c80636352211e116100f9578063a22cb46511610097578063c87b56dd11610071578063c87b56dd146104de578063d204c45e1461050e578063e985e9c51461052a578063f2fde38b1461055a576101a9565b8063a22cb46514610476578063b2e887bb14610492578063b88d4fde146104c2576101a9565b806375794a3c116100d357806375794a3c146104005780638da5cb5b1461041e57806395d89b411461043c57806397107d6d1461045a576101a9565b80636352211e1461039657806370a08231146103c6578063715018a6146103f6576101a9565b806318160ddd1161016657806342842e0e1161014057806342842e0e146102fe57806342966c681461031a5780634f558e79146103365780634f6ccce714610366576101a9565b806318160ddd1461029457806323b872dd146102b25780632f745c59146102ce576101a9565b806301ffc9a7146101ae57806306fdde03146101de578063081812fc146101fc578063095ea7b31461022c5780630f7939a314610248578063162094c414610278575b600080fd5b6101c860048036038101906101c39190612be7565b610576565b6040516101d59190613128565b60405180910390f35b6101e66105f0565b6040516101f39190613143565b60405180910390f35b61021660048036038101906102119190612c39565b610682565b6040516102239190613098565b60405180910390f35b61024660048036038101906102419190612bab565b610707565b005b610262600480360381019061025d9190612bab565b61081f565b60405161026f91906133e5565b60405180910390f35b610292600480360381019061028d9190612c62565b610833565b005b61029c610841565b6040516102a991906133e5565b60405180910390f35b6102cc60048036038101906102c79190612a51565b61084e565b005b6102e860048036038101906102e39190612bab565b61093d565b6040516102f591906133e5565b60405180910390f35b61031860048036038101906103139190612a51565b6109e2565b005b610334600480360381019061032f9190612c39565b610a02565b005b610350600480360381019061034b9190612c39565b610a0e565b60405161035d9190613128565b60405180910390f35b610380600480360381019061037b9190612c39565b610a20565b60405161038d91906133e5565b60405180910390f35b6103b060048036038101906103ab9190612c39565b610ab7565b6040516103bd9190613098565b60405180910390f35b6103e060048036038101906103db91906129ec565b610b69565b6040516103ed91906133e5565b60405180910390f35b6103fe610c21565b005b610408610ca9565b60405161041591906133e5565b60405180910390f35b610426610cdc565b6040516104339190613098565b60405180910390f35b610444610d06565b6040516104519190613143565b60405180910390f35b610474600480360381019061046f91906129ec565b610d98565b005b610490600480360381019061048b9190612b1b565b610e58565b005b6104ac60048036038101906104a791906129ec565b610e6e565b6040516104b991906133e5565b60405180910390f35b6104dc60048036038101906104d79190612aa0565b610e80565b005b6104f860048036038101906104f39190612c39565b610ee2565b6040516105059190613143565b60405180910390f35b61052860048036038101906105239190612b57565b611034565b005b610544600480360381019061053f9190612a15565b611123565b6040516105519190613128565b60405180910390f35b610574600480360381019061056f91906129ec565b6111b7565b005b60007f780e9d63000000000000000000000000000000000000000000000000000000007bffffffffffffffffffffffffffffffffffffffffffffffffffffffff1916827bffffffffffffffffffffffffffffffffffffffffffffffffffffffff191614806105e957506105e8826112af565b5b9050919050565b6060600080546105ff9061363b565b80601f016020809104026020016040519081016040528092919081815260200182805461062b9061363b565b80156106785780601f1061064d57610100808354040283529160200191610678565b820191906000526020600020905b81548152906001019060200180831161065b57829003601f168201915b5050505050905090565b600061068d82611391565b6106cc576040517f08c379a00000000000000000000000000000000000000000000000000000000081526004016106c390613325565b60405180910390fd5b6004600083815260200190815260200160002060009054906101000a900473ffffffffffffffffffffffffffffffffffffffff169050919050565b600061071282610ab7565b90508073ffffffffffffffffffffffffffffffffffffffff168373ffffffffffffffffffffffffffffffffffffffff161415610783576040517f08c379a000000000000000000000000000000000000000000000000000000000815260040161077a90613385565b60405180910390fd5b8073ffffffffffffffffffffffffffffffffffffffff166107a26113fd565b73ffffffffffffffffffffffffffffffffffffffff1614806107d157506107d0816107cb6113fd565b611123565b5b610810576040517f08c379a000000000000000000000000000000000000000000000000000000000815260040161080790613265565b60405180910390fd5b61081a8383611405565b505050565b600061082b838361093d565b905092915050565b61083d82826114be565b5050565b6000600880549050905090565b61085f6108596113fd565b82611532565b61089e576040517f08c379a0000000000000000000000000000000000000000000000000000000008152600401610895906133a5565b60405180910390fd5b600c60009054906101000a900473ffffffffffffffffffffffffffffffffffffffff1673ffffffffffffffffffffffffffffffffffffffff1663ff4610cd83836040518363ffffffff1660e01b81526004016108fb9291906130ff565b600060405180830381600087803b15801561091557600080fd5b505af1158015610929573d6000803e3d6000fd5b50505050610938838383611610565b505050565b600061094883610b69565b8210610989576040517f08c379a000000000000000000000000000000000000000000000000000000000815260040161098090613165565b60405180910390fd5b600660008473ffffffffffffffffffffffffffffffffffffffff1673ffffffffffffffffffffffffffffffffffffffff168152602001908152602001600020600083815260200190815260200160002054905092915050565b6109fd83838360405180602001604052806000815250610e80565b505050565b610a0b81611877565b50565b6000610a1982611391565b9050919050565b6000610a2a610841565b8210610a6b576040517f08c379a0000000000000000000000000000000000000000000000000000000008152600401610a62906133c5565b60405180910390fd5b60088281548110610aa5577f4e487b7100000000000000000000000000000000000000000000000000000000600052603260045260246000fd5b90600052602060002001549050919050565b6000806002600084815260200190815260200160002060009054906101000a900473ffffffffffffffffffffffffffffffffffffffff169050600073ffffffffffffffffffffffffffffffffffffffff168173ffffffffffffffffffffffffffffffffffffffff161415610b60576040517f08c379a0000000000000000000000000000000000000000000000000000000008152600401610b57906132a5565b60405180910390fd5b80915050919050565b60008073ffffffffffffffffffffffffffffffffffffffff168273ffffffffffffffffffffffffffffffffffffffff161415610bda576040517f08c379a0000000000000000000000000000000000000000000000000000000008152600401610bd190613285565b60405180910390fd5b600360008373ffffffffffffffffffffffffffffffffffffffff1673ffffffffffffffffffffffffffffffffffffffff168152602001908152602001600020549050919050565b610c296113fd565b73ffffffffffffffffffffffffffffffffffffffff16610c47610cdc565b73ffffffffffffffffffffffffffffffffffffffff1614610c9d576040517f08c379a0000000000000000000000000000000000000000000000000000000008152600401610c9490613345565b60405180910390fd5b610ca760006118ca565b565b6000600b54604051602001610cbe919061307d565b6040516020818303038152906040528051906020012060001c905090565b6000600a60009054906101000a900473ffffffffffffffffffffffffffffffffffffffff16905090565b606060018054610d159061363b565b80601f0160208091040260200160405190810160405280929190818152602001828054610d419061363b565b8015610d8e5780601f10610d6357610100808354040283529160200191610d8e565b820191906000526020600020905b815481529060010190602001808311610d7157829003601f168201915b5050505050905090565b610da06113fd565b73ffffffffffffffffffffffffffffffffffffffff16610dbe610cdc565b73ffffffffffffffffffffffffffffffffffffffff1614610e14576040517f08c379a0000000000000000000000000000000000000000000000000000000008152600401610e0b90613345565b60405180910390fd5b80600c60006101000a81548173ffffffffffffffffffffffffffffffffffffffff021916908373ffffffffffffffffffffffffffffffffffffffff16021790555050565b610e6a610e636113fd565b8383611990565b5050565b6000610e7982610b69565b9050919050565b610e91610e8b6113fd565b83611532565b610ed0576040517f08c379a0000000000000000000000000000000000000000000000000000000008152600401610ec7906133a5565b60405180910390fd5b610edc84848484611afd565b50505050565b6060610eed82611391565b610f2c576040517f08c379a0000000000000000000000000000000000000000000000000000000008152600401610f2390613305565b60405180910390fd5b6000600d60008481526020019081526020016000208054610f4c9061363b565b80601f0160208091040260200160405190810160405280929190818152602001828054610f789061363b565b8015610fc55780601f10610f9a57610100808354040283529160200191610fc5565b820191906000526020600020905b815481529060010190602001808311610fa857829003601f168201915b505050505090506000610fd6611b59565b9050600081511415610fec57819250505061102f565b600082511115611021578082604051602001611009929190613059565b6040516020818303038152906040529250505061102f565b61102a84611b70565b925050505b919050565b61103c6113fd565b73ffffffffffffffffffffffffffffffffffffffff1661105a610cdc565b73ffffffffffffffffffffffffffffffffffffffff16146110b0576040517f08c379a00000000000000000000000000000000000000000000000000000000081526004016110a790613345565b60405180910390fd5b6000600b546040516020016110c5919061307d565b6040516020818303038152906040528051906020012060001c90506110fa838260405180602001604052806000815250611c17565b61110481836114be565b6001600b600082825461111791906134ca565b92505081905550505050565b6000600560008473ffffffffffffffffffffffffffffffffffffffff1673ffffffffffffffffffffffffffffffffffffffff16815260200190815260200160002060008373ffffffffffffffffffffffffffffffffffffffff1673ffffffffffffffffffffffffffffffffffffffff16815260200190815260200160002060009054906101000a900460ff16905092915050565b6111bf6113fd565b73ffffffffffffffffffffffffffffffffffffffff166111dd610cdc565b73ffffffffffffffffffffffffffffffffffffffff1614611233576040517f08c379a000000000000000000000000000000000000000000000000000000000815260040161122a90613345565b60405180910390fd5b600073ffffffffffffffffffffffffffffffffffffffff168173ffffffffffffffffffffffffffffffffffffffff1614156112a3576040517f08c379a000000000000000000000000000000000000000000000000000000000815260040161129a906131a5565b60405180910390fd5b6112ac816118ca565b50565b60007f80ac58cd000000000000000000000000000000000000000000000000000000007bffffffffffffffffffffffffffffffffffffffffffffffffffffffff1916827bffffffffffffffffffffffffffffffffffffffffffffffffffffffff1916148061137a57507f5b5e139f000000000000000000000000000000000000000000000000000000007bffffffffffffffffffffffffffffffffffffffffffffffffffffffff1916827bffffffffffffffffffffffffffffffffffffffffffffffffffffffff1916145b8061138a575061138982611c72565b5b9050919050565b60008073ffffffffffffffffffffffffffffffffffffffff166002600084815260200190815260200160002060009054906101000a900473ffffffffffffffffffffffffffffffffffffffff1673ffffffffffffffffffffffffffffffffffffffff1614159050919050565b600033905090565b816004600083815260200190815260200160002060006101000a81548173ffffffffffffffffffffffffffffffffffffffff021916908373ffffffffffffffffffffffffffffffffffffffff160217905550808273ffffffffffffffffffffffffffffffffffffffff1661147883610ab7565b73ffffffffffffffffffffffffffffffffffffffff167f8c5be1e5ebec7d5bd14f71427d1e84f3dd0314c0f7b2291e5b200ac8c7c3b92560405160405180910390a45050565b6114c782611391565b611506576040517f08c379a00000000000000000000000000000000000000000000000000000000081526004016114fd906132c5565b60405180910390fd5b80600d6000848152602001908152602001600020908051906020019061152d9291906127d0565b505050565b600061153d82611391565b61157c576040517f08c379a000000000000000000000000000000000000000000000000000000000815260040161157390613245565b60405180910390fd5b600061158783610ab7565b90508073ffffffffffffffffffffffffffffffffffffffff168473ffffffffffffffffffffffffffffffffffffffff1614806115f657508373ffffffffffffffffffffffffffffffffffffffff166115de84610682565b73ffffffffffffffffffffffffffffffffffffffff16145b8061160757506116068185611123565b5b91505092915050565b8273ffffffffffffffffffffffffffffffffffffffff1661163082610ab7565b73ffffffffffffffffffffffffffffffffffffffff1614611686576040517f08c379a000000000000000000000000000000000000000000000000000000000815260040161167d906131c5565b60405180910390fd5b600073ffffffffffffffffffffffffffffffffffffffff168273ffffffffffffffffffffffffffffffffffffffff1614156116f6576040517f08c379a00000000000000000000000000000000000000000000000000000000081526004016116ed90613205565b60405180910390fd5b611701838383611cdc565b61170c600082611405565b6001600360008573ffffffffffffffffffffffffffffffffffffffff1673ffffffffffffffffffffffffffffffffffffffff168152602001908152602001600020600082825461175c9190613551565b925050819055506001600360008473ffffffffffffffffffffffffffffffffffffffff1673ffffffffffffffffffffffffffffffffffffffff16815260200190815260200160002060008282546117b391906134ca565b92505081905550816002600083815260200190815260200160002060006101000a81548173ffffffffffffffffffffffffffffffffffffffff021916908373ffffffffffffffffffffffffffffffffffffffff160217905550808273ffffffffffffffffffffffffffffffffffffffff168473ffffffffffffffffffffffffffffffffffffffff167fddf252ad1be2c89b69c2b068fc378daa952ba7f163c4a11628f55a4df523b3ef60405160405180910390a4611872838383611df0565b505050565b61188081611df5565b6000600d600083815260200190815260200160002080546118a09061363b565b9050146118c757600d600082815260200190815260200160002060006118c69190612856565b5b50565b6000600a60009054906101000a900473ffffffffffffffffffffffffffffffffffffffff16905081600a60006101000a81548173ffffffffffffffffffffffffffffffffffffffff021916908373ffffffffffffffffffffffffffffffffffffffff1602179055508173ffffffffffffffffffffffffffffffffffffffff168173ffffffffffffffffffffffffffffffffffffffff167f8be0079c531659141344cd1fd0a4f28419497f9722a3daafe3b4186f6b6457e060405160405180910390a35050565b8173ffffffffffffffffffffffffffffffffffffffff168373ffffffffffffffffffffffffffffffffffffffff1614156119ff576040517f08c379a00000000000000000000000000000000000000000000000000000000081526004016119f690613225565b60405180910390fd5b80600560008573ffffffffffffffffffffffffffffffffffffffff1673ffffffffffffffffffffffffffffffffffffffff16815260200190815260200160002060008473ffffffffffffffffffffffffffffffffffffffff1673ffffffffffffffffffffffffffffffffffffffff16815260200190815260200160002060006101000a81548160ff0219169083151502179055508173ffffffffffffffffffffffffffffffffffffffff168373ffffffffffffffffffffffffffffffffffffffff167f17307eab39ab6107e8899845ad3d59bd9653f200f220920489ca2b5937696c3183604051611af09190613128565b60405180910390a3505050565b611b08848484611610565b611b1484848484611f12565b611b53576040517f08c379a0000000000000000000000000000000000000000000000000000000008152600401611b4a90613185565b60405180910390fd5b50505050565b606060405180602001604052806000815250905090565b6060611b7b82611391565b611bba576040517f08c379a0000000000000000000000000000000000000000000000000000000008152600401611bb190613365565b60405180910390fd5b6000611bc4611b59565b90506000815111611be45760405180602001604052806000815250611c0f565b80611bee846120a9565b604051602001611bff929190613059565b6040516020818303038152906040525b915050919050565b611c218383612256565b611c2e6000848484611f12565b611c6d576040517f08c379a0000000000000000000000000000000000000000000000000000000008152600401611c6490613185565b60405180910390fd5b505050565b60007f01ffc9a7000000000000000000000000000000000000000000000000000000007bffffffffffffffffffffffffffffffffffffffffffffffffffffffff1916827bffffffffffffffffffffffffffffffffffffffffffffffffffffffff1916149050919050565b611ce7838383612430565b600073ffffffffffffffffffffffffffffffffffffffff168373ffffffffffffffffffffffffffffffffffffffff161415611d2a57611d2581612435565b611d69565b8173ffffffffffffffffffffffffffffffffffffffff168373ffffffffffffffffffffffffffffffffffffffff1614611d6857611d67838261247e565b5b5b600073ffffffffffffffffffffffffffffffffffffffff168273ffffffffffffffffffffffffffffffffffffffff161415611dac57611da7816125eb565b611deb565b8273ffffffffffffffffffffffffffffffffffffffff168273ffffffffffffffffffffffffffffffffffffffff1614611dea57611de9828261272e565b5b5b505050565b505050565b6000611e0082610ab7565b9050611e0e81600084611cdc565b611e19600083611405565b6001600360008373ffffffffffffffffffffffffffffffffffffffff1673ffffffffffffffffffffffffffffffffffffffff1681526020019081526020016000206000828254611e699190613551565b925050819055506002600083815260200190815260200160002060006101000a81549073ffffffffffffffffffffffffffffffffffffffff021916905581600073ffffffffffffffffffffffffffffffffffffffff168273ffffffffffffffffffffffffffffffffffffffff167fddf252ad1be2c89b69c2b068fc378daa952ba7f163c4a11628f55a4df523b3ef60405160405180910390a4611f0e81600084611df0565b5050565b6000611f338473ffffffffffffffffffffffffffffffffffffffff166127ad565b1561209c578373ffffffffffffffffffffffffffffffffffffffff1663150b7a02611f5c6113fd565b8786866040518563ffffffff1660e01b8152600401611f7e94939291906130b3565b602060405180830381600087803b158015611f9857600080fd5b505af1925050508015611fc957506040513d601f19601f82011682018060405250810190611fc69190612c10565b60015b61204c573d8060008114611ff9576040519150601f19603f3d011682016040523d82523d6000602084013e611ffe565b606091505b50600081511415612044576040517f08c379a000000000000000000000000000000000000000000000000000000000815260040161203b90613185565b60405180910390fd5b805181602001fd5b63150b7a0260e01b7bffffffffffffffffffffffffffffffffffffffffffffffffffffffff1916817bffffffffffffffffffffffffffffffffffffffffffffffffffffffff1916149150506120a1565b600190505b949350505050565b606060008214156120f1576040518060400160405280600181526020017f30000000000000000000000000000000000000000000000000000000000000008152509050612251565b600082905060005b6000821461212357808061210c9061369e565b915050600a8261211c9190613520565b91506120f9565b60008167ffffffffffffffff811115612165577f4e487b7100000000000000000000000000000000000000000000000000000000600052604160045260246000fd5b6040519080825280601f01601f1916602001820160405280156121975781602001600182028036833780820191505090505b5090505b6000851461224a576001826121b09190613551565b9150600a856121bf91906136f1565b60306121cb91906134ca565b60f81b818381518110612207577f4e487b7100000000000000000000000000000000000000000000000000000000600052603260045260246000fd5b60200101907effffffffffffffffffffffffffffffffffffffffffffffffffffffffffffff1916908160001a905350600a856122439190613520565b945061219b565b8093505050505b919050565b600073ffffffffffffffffffffffffffffffffffffffff168273ffffffffffffffffffffffffffffffffffffffff1614156122c6576040517f08c379a00000000000000000000000000000000000000000000000000000000081526004016122bd906132e5565b60405180910390fd5b6122cf81611391565b1561230f576040517f08c379a0000000000000000000000000000000000000000000000000000000008152600401612306906131e5565b60405180910390fd5b61231b60008383611cdc565b6001600360008473ffffffffffffffffffffffffffffffffffffffff1673ffffffffffffffffffffffffffffffffffffffff168152602001908152602001600020600082825461236b91906134ca565b92505081905550816002600083815260200190815260200160002060006101000a81548173ffffffffffffffffffffffffffffffffffffffff021916908373ffffffffffffffffffffffffffffffffffffffff160217905550808273ffffffffffffffffffffffffffffffffffffffff16600073ffffffffffffffffffffffffffffffffffffffff167fddf252ad1be2c89b69c2b068fc378daa952ba7f163c4a11628f55a4df523b3ef60405160405180910390a461242c60008383611df0565b5050565b505050565b6008805490506009600083815260200190815260200160002081905550600881908060018154018082558091505060019003906000526020600020016000909190919091505550565b6000600161248b84610b69565b6124959190613551565b905060006007600084815260200190815260200160002054905081811461257a576000600660008673ffffffffffffffffffffffffffffffffffffffff1673ffffffffffffffffffffffffffffffffffffffff168152602001908152602001600020600084815260200190815260200160002054905080600660008773ffffffffffffffffffffffffffffffffffffffff1673ffffffffffffffffffffffffffffffffffffffff168152602001908152602001600020600084815260200190815260200160002081905550816007600083815260200190815260200160002081905550505b6007600084815260200190815260200160002060009055600660008573ffffffffffffffffffffffffffffffffffffffff1673ffffffffffffffffffffffffffffffffffffffff16815260200190815260200160002060008381526020019081526020016000206000905550505050565b600060016008805490506125ff9190613551565b9050600060096000848152602001908152602001600020549050600060088381548110612655577f4e487b7100000000000000000000000000000000000000000000000000000000600052603260045260246000fd5b90600052602060002001549050806008838154811061269d577f4e487b7100000000000000000000000000000000000000000000000000000000600052603260045260246000fd5b906000526020600020018190555081600960008381526020019081526020016000208190555060096000858152602001908152602001600020600090556008805480612712577f4e487b7100000000000000000000000000000000000000000000000000000000600052603160045260246000fd5b6001900381819060005260206000200160009055905550505050565b600061273983610b69565b905081600660008573ffffffffffffffffffffffffffffffffffffffff1673ffffffffffffffffffffffffffffffffffffffff168152602001908152602001600020600083815260200190815260200160002081905550806007600084815260200190815260200160002081905550505050565b6000808273ffffffffffffffffffffffffffffffffffffffff163b119050919050565b8280546127dc9061363b565b90600052602060002090601f0160209004810192826127fe5760008555612845565b82601f1061281757805160ff1916838001178555612845565b82800160010185558215612845579182015b82811115612844578251825591602001919060010190612829565b5b5090506128529190612896565b5090565b5080546128629061363b565b6000825580601f106128745750612893565b601f0160209004906000526020600020908101906128929190612896565b5b50565b5b808211156128af576000816000905550600101612897565b5090565b60006128c66128c184613425565b613400565b9050828152602081018484840111156128de57600080fd5b6128e98482856135f9565b509392505050565b60006129046128ff84613456565b613400565b90508281526020810184848401111561291c57600080fd5b6129278482856135f9565b509392505050565b60008135905061293e81613d83565b92915050565b60008135905061295381613d9a565b92915050565b60008135905061296881613db1565b92915050565b60008151905061297d81613db1565b92915050565b600082601f83011261299457600080fd5b81356129a48482602086016128b3565b91505092915050565b600082601f8301126129be57600080fd5b81356129ce8482602086016128f1565b91505092915050565b6000813590506129e681613dc8565b92915050565b6000602082840312156129fe57600080fd5b6000612a0c8482850161292f565b91505092915050565b60008060408385031215612a2857600080fd5b6000612a368582860161292f565b9250506020612a478582860161292f565b9150509250929050565b600080600060608486031215612a6657600080fd5b6000612a748682870161292f565b9350506020612a858682870161292f565b9250506040612a96868287016129d7565b9150509250925092565b60008060008060808587031215612ab657600080fd5b6000612ac48782880161292f565b9450506020612ad58782880161292f565b9350506040612ae6878288016129d7565b925050606085013567ffffffffffffffff811115612b0357600080fd5b612b0f87828801612983565b91505092959194509250565b60008060408385031215612b2e57600080fd5b6000612b3c8582860161292f565b9250506020612b4d85828601612944565b9150509250929050565b60008060408385031215612b6a57600080fd5b6000612b788582860161292f565b925050602083013567ffffffffffffffff811115612b9557600080fd5b612ba1858286016129ad565b9150509250929050565b60008060408385031215612bbe57600080fd5b6000612bcc8582860161292f565b9250506020612bdd858286016129d7565b9150509250929050565b600060208284031215612bf957600080fd5b6000612c0784828501612959565b91505092915050565b600060208284031215612c2257600080fd5b6000612c308482850161296e565b91505092915050565b600060208284031215612c4b57600080fd5b6000612c59848285016129d7565b91505092915050565b60008060408385031215612c7557600080fd5b6000612c83858286016129d7565b925050602083013567ffffffffffffffff811115612ca057600080fd5b612cac858286016129ad565b9150509250929050565b612cbf81613585565b82525050565b612cce81613597565b82525050565b6000612cdf82613487565b612ce9818561349d565b9350612cf9818560208601613608565b612d02816137de565b840191505092915050565b6000612d1882613492565b612d2281856134ae565b9350612d32818560208601613608565b612d3b816137de565b840191505092915050565b6000612d5182613492565b612d5b81856134bf565b9350612d6b818560208601613608565b80840191505092915050565b6000612d84602b836134ae565b9150612d8f826137ef565b604082019050919050565b6000612da76032836134ae565b9150612db28261383e565b604082019050919050565b6000612dca6026836134ae565b9150612dd58261388d565b604082019050919050565b6000612ded6025836134ae565b9150612df8826138dc565b604082019050919050565b6000612e10601c836134ae565b9150612e1b8261392b565b602082019050919050565b6000612e336024836134ae565b9150612e3e82613954565b604082019050919050565b6000612e566019836134ae565b9150612e61826139a3565b602082019050919050565b6000612e79602c836134ae565b9150612e84826139cc565b604082019050919050565b6000612e9c6038836134ae565b9150612ea782613a1b565b604082019050919050565b6000612ebf602a836134ae565b9150612eca82613a6a565b604082019050919050565b6000612ee26029836134ae565b9150612eed82613ab9565b604082019050919050565b6000612f05602e836134ae565b9150612f1082613b08565b604082019050919050565b6000612f286020836134ae565b9150612f3382613b57565b602082019050919050565b6000612f4b6031836134ae565b9150612f5682613b80565b604082019050919050565b6000612f6e602c836134ae565b9150612f7982613bcf565b604082019050919050565b6000612f916020836134ae565b9150612f9c82613c1e565b602082019050919050565b6000612fb4602f836134ae565b9150612fbf82613c47565b604082019050919050565b6000612fd76021836134ae565b9150612fe282613c96565b604082019050919050565b6000612ffa6031836134ae565b915061300582613ce5565b604082019050919050565b600061301d602c836134ae565b915061302882613d34565b604082019050919050565b61303c816135ef565b82525050565b61305361304e826135ef565b6136e7565b82525050565b60006130658285612d46565b91506130718284612d46565b91508190509392505050565b60006130898284613042565b60208201915081905092915050565b60006020820190506130ad6000830184612cb6565b92915050565b60006080820190506130c86000830187612cb6565b6130d56020830186612cb6565b6130e26040830185613033565b81810360608301526130f48184612cd4565b905095945050505050565b60006040820190506131146000830185612cb6565b6131216020830184613033565b9392505050565b600060208201905061313d6000830184612cc5565b92915050565b6000602082019050818103600083015261315d8184612d0d565b905092915050565b6000602082019050818103600083015261317e81612d77565b9050919050565b6000602082019050818103600083015261319e81612d9a565b9050919050565b600060208201905081810360008301526131be81612dbd565b9050919050565b600060208201905081810360008301526131de81612de0565b9050919050565b600060208201905081810360008301526131fe81612e03565b9050919050565b6000602082019050818103600083015261321e81612e26565b9050919050565b6000602082019050818103600083015261323e81612e49565b9050919050565b6000602082019050818103600083015261325e81612e6c565b9050919050565b6000602082019050818103600083015261327e81612e8f565b9050919050565b6000602082019050818103600083015261329e81612eb2565b9050919050565b600060208201905081810360008301526132be81612ed5565b9050919050565b600060208201905081810360008301526132de81612ef8565b9050919050565b600060208201905081810360008301526132fe81612f1b565b9050919050565b6000602082019050818103600083015261331e81612f3e565b9050919050565b6000602082019050818103600083015261333e81612f61565b9050919050565b6000602082019050818103600083015261335e81612f84565b9050919050565b6000602082019050818103600083015261337e81612fa7565b9050919050565b6000602082019050818103600083015261339e81612fca565b9050919050565b600060208201905081810360008301526133be81612fed565b9050919050565b600060208201905081810360008301526133de81613010565b9050919050565b60006020820190506133fa6000830184613033565b92915050565b600061340a61341b565b9050613416828261366d565b919050565b6000604051905090565b600067ffffffffffffffff8211156134405761343f6137af565b5b613449826137de565b9050602081019050919050565b600067ffffffffffffffff821115613471576134706137af565b5b61347a826137de565b9050602081019050919050565b600081519050919050565b600081519050919050565b600082825260208201905092915050565b600082825260208201905092915050565b600081905092915050565b60006134d5826135ef565b91506134e0836135ef565b9250827fffffffffffffffffffffffffffffffffffffffffffffffffffffffffffffffff0382111561351557613514613722565b5b828201905092915050565b600061352b826135ef565b9150613536836135ef565b92508261354657613545613751565b5b828204905092915050565b600061355c826135ef565b9150613567836135ef565b92508282101561357a57613579613722565b5b828203905092915050565b6000613590826135cf565b9050919050565b60008115159050919050565b60007fffffffff0000000000000000000000000000000000000000000000000000000082169050919050565b600073ffffffffffffffffffffffffffffffffffffffff82169050919050565b6000819050919050565b82818337600083830152505050565b60005b8381101561362657808201518184015260208101905061360b565b83811115613635576000848401525b50505050565b6000600282049050600182168061365357607f821691505b6020821081141561366757613666613780565b5b50919050565b613676826137de565b810181811067ffffffffffffffff82111715613695576136946137af565b5b80604052505050565b60006136a9826135ef565b91507fffffffffffffffffffffffffffffffffffffffffffffffffffffffffffffffff8214156136dc576136db613722565b5b600182019050919050565b6000819050919050565b60006136fc826135ef565b9150613707836135ef565b92508261371757613716613751565b5b828206905092915050565b7f4e487b7100000000000000000000000000000000000000000000000000000000600052601160045260246000fd5b7f4e487b7100000000000000000000000000000000000000000000000000000000600052601260045260246000fd5b7f4e487b7100000000000000000000000000000000000000000000000000000000600052602260045260246000fd5b7f4e487b7100000000000000000000000000000000000000000000000000000000600052604160045260246000fd5b6000601f19601f8301169050919050565b7f455243373231456e756d657261626c653a206f776e657220696e646578206f7560008201527f74206f6620626f756e6473000000000000000000000000000000000000000000602082015250565b7f4552433732313a207472616e7366657220746f206e6f6e20455243373231526560008201527f63656976657220696d706c656d656e7465720000000000000000000000000000602082015250565b7f4f776e61626c653a206e6577206f776e657220697320746865207a65726f206160008201527f6464726573730000000000000000000000000000000000000000000000000000602082015250565b7f4552433732313a207472616e736665722066726f6d20696e636f72726563742060008201527f6f776e6572000000000000000000000000000000000000000000000000000000602082015250565b7f4552433732313a20746f6b656e20616c7265616479206d696e74656400000000600082015250565b7f4552433732313a207472616e7366657220746f20746865207a65726f2061646460008201527f7265737300000000000000000000000000000000000000000000000000000000602082015250565b7f4552433732313a20617070726f766520746f2063616c6c657200000000000000600082015250565b7f4552433732313a206f70657261746f7220717565727920666f72206e6f6e657860008201527f697374656e7420746f6b656e0000000000000000000000000000000000000000602082015250565b7f4552433732313a20617070726f76652063616c6c6572206973206e6f74206f7760008201527f6e6572206e6f7220617070726f76656420666f7220616c6c0000000000000000602082015250565b7f4552433732313a2062616c616e636520717565727920666f7220746865207a6560008201527f726f206164647265737300000000000000000000000000000000000000000000602082015250565b7f4552433732313a206f776e657220717565727920666f72206e6f6e657869737460008201527f656e7420746f6b656e0000000000000000000000000000000000000000000000602082015250565b7f45524337323155524953746f726167653a2055524920736574206f66206e6f6e60008201527f6578697374656e7420746f6b656e000000000000000000000000000000000000602082015250565b7f4552433732313a206d696e7420746f20746865207a65726f2061646472657373600082015250565b7f45524337323155524953746f726167653a2055524920717565727920666f722060008201527f6e6f6e6578697374656e7420746f6b656e000000000000000000000000000000602082015250565b7f4552433732313a20617070726f76656420717565727920666f72206e6f6e657860008201527f697374656e7420746f6b656e0000000000000000000000000000000000000000602082015250565b7f4f776e61626c653a2063616c6c6572206973206e6f7420746865206f776e6572600082015250565b7f4552433732314d657461646174613a2055524920717565727920666f72206e6f60008201527f6e6578697374656e7420746f6b656e0000000000000000000000000000000000602082015250565b7f4552433732313a20617070726f76616c20746f2063757272656e74206f776e6560008201527f7200000000000000000000000000000000000000000000000000000000000000602082015250565b7f4552433732313a207472616e736665722063616c6c6572206973206e6f74206f60008201527f776e6572206e6f7220617070726f766564000000000000000000000000000000602082015250565b7f455243373231456e756d657261626c653a20676c6f62616c20696e646578206f60008201527f7574206f6620626f756e64730000000000000000000000000000000000000000602082015250565b613d8c81613585565b8114613d9757600080fd5b50565b613da381613597565b8114613dae57600080fd5b50565b613dba816135a3565b8114613dc557600080fd5b50565b613dd1816135ef565b8114613ddc57600080fd5b5056fea2646970667358221220b16c0d9820764fc49140af95bcfed0a49a247364555952418a7860f7207254be64736f6c63430008040033",
  "linkReferences": {},
  "deployedLinkReferences": {}
}